:100000000C94F0010C9437020C9437020C943702D4
:100010000C9437020C9437020C9437020C9437027C
:100020000C9437020C9437020C9457260C942B270F
:100030000C94B3210C9437020C9437020C943702C1
:100040000C9437020C9437020C9437020C9437024C
:100050000C9437020C94FE210C9437020C94370256
:100060000C9437020C9437020C9437020C9437022C
:100070000C9437020C9437020C9437020C9437021C
:100080000C9437020C9437020C9437020C9437020C
:100090000C9437020C9437020C9437020C943702FC
:1000A0000C9437020C9437020C943702B1002842AA
:1000B000A800AC00AB00AE41B600B700B8002B03FF
:1000C0002B0101001C0301000353160A2B08040432
:1000D0003E614262035305050C05450032190A00D2
:1000E000047F3F1F643214643214783C1E1E140ACD
:1000F000052223252628292A2C2D2F303233353668
:10010000383A3B3D3E4042434547494A4C4E5051A8
:10011000535557595A5C5E6062646668696B6D6FCF
:1001200071737577797B7D7F81838587898A8C8ED2
:1001300090929496989A9C9E9FA1A3A5A7A8AAACDA
:10014000AEAFB1B3B4B6B8B9BBBCBEBFC1C2C3C514
:10015000C6C7C9CACBCCCDCED0D1D2D2D3D4D5D6B6
:10016000D7D7D8D9D9DADADBDBDBDCDCDCDCDCDDE9
:10017000DDDDDDDCDCDCDCDCDBDBDBDADAD9D9D8CD
:10018000D7D7D6D5D4D3D2D2D1D0CECDCCCBCAC965
:10019000C7C6C5C3C2C1BFBEBCBBB9B8B6B4B3B194
:1001A000AFAEACAAA8A7A5A3A19F9E9C9A9896942F
:1001B00092908E8C8A89878583817F7D7B79777504
:1001C00073716F6D6B6968666462605E5C5A5957E3
:1001D000555351504E4C4A4947454342403E3D3BA2
:1001E0003A3836353332302F2D2C2A29282625232C
:1001F00022FFAA7F55400001010101010101010117
:1002000002020202020202020203030303030303C7
:100210000304040404040404050505050506060694
:100220000606070707070708080808090909090A51
:100230000A0A0B0B0B0C0C0C0D0D0D0E0E0E0F0FF6
:100240000F10101111111212131314141515161684
:100250001717181819191A1A1B1B1C1D1D1E1E1FF3
:100260002020212222232424252626272829292A42
:100270002B2C2D2D2E2F303132323334353637386A
:10028000393A3B3C3D3E3F40414243444546474866
:10029000494A4C4D4E4F50515354555658595A5B3C
:1002A0005D5E5F616264656668696B6C6D6F7072DC
:1002B000737577787A7B7D7E8082838587888A8C48
:1002C0008E8F91939596989A9C9EA0A2A3A5A7A97C
:1002D000ABADAFB1B3B5B7BABCBEC0C2C4C6C9CB73
:1002E000CDCFD1D4D6D8DBDDDFE2E4E7E9EBEEF029
:1002F000F3F5F8FAFDFF0403300000000C034200A0
:1003000065006E0074006F00000010036E0067004F
:10031000750079006500640074000000040309049E
:1003200009023B00020100A0FA09040000010301D8
:100330000100092111010001224000070581030885
:10034000000A090401000103000000092111010055
:10035000012232000705820320000A120110010069
:1003600000000810CB33110001010203010501094F
:1003700080A101850319012AB700150126B7009550
:100380000175108100C0050C0901A1018504190146
:100390002AA002150126A002950175108100C00552
:1003A000010906A101050719E029E71500250195B6
:1003B0000875018102950175088101050719002959
:1003C000FF150026FF009506750881000508190134
:1003D0002905950575019102950175039101C000EC
:1003E00011241FBECFEFDAE0DEBFCDBF04B603FE9F
:1003F00027C08091E0029091E102A091E202B091C9
:10040000E3028730904BA740B04BD1F41092E0024A
:100410001092E1021092E2021092E30214BE84B73D
:10042000877F84BF0FB6F894A8958091600088619B
:1004300080936000109260000FBEE0E0F8E3099541
:1004400011E0A0E0B1E0E0E7F5E502C005900D9213
:10045000A83CB107D9F722E0A8ECB1E001C01D9299
:10046000A03EB207E1F70E9497230C947A2A0C94DD
:100470000000CF930E945007813019F081E00E9464
:10048000780C60917F02709180028091810290913E
:1004900082020E94F21FC82F8091C80191E0C81308
:1004A00090E09093C901C13089F0CC2341F0C23073
:1004B00099F0C330B9F0C093C801CF91089540E0DE
:1004C00060E08111F8CF0E942909F5CF813099F7BA
:1004D0004FEF6FEF8AEAF7CF823069F74FEF6FEF98
:1004E00080E0F1CF833039F74FEF6FEF85E5EBCF49
:1004F000CF93C62F60917F0270918002809181021C
:10050000909182020E94F21F813079F0882331F0AD
:100510008230F1F08330A1F1CF91089589EAC111C1
:1005200001C08AEACF910C94401780EE0E946716B2
:1005300083EE0E9467168FE4C11101C080E50E941E
:10054000401783EE0E94F11680EECF910C94F116C5
:10055000C11103C081EE0E94671680EE0E946716EB
:1005600082EE0E9467168BE20E94401780EE0E9486
:10057000F11682EE0E94F116C111CECF81EEE5CFC9
:1005800083E4C111CFCF84E4CDCF81E0089581E031
:1005900008950C94C70208950C94CB021F93CF9337
:1005A000DF9300D000D00F92CDB7DEB749835A83D6
:1005B0006B833091410289819A8131111DC066237C
:1005C000B9F02223A9F00E94AE1E182F682F89814E
:1005D0009A810E94591E69817A81812F0F900F9014
:1005E0000F900F900F90DF91CF911F910C94A1036A
:1005F0000E94861E182FEFCF0E94AE1E69817A815D
:10060000EDCFFC01262F408151816281738184816D
:100610000C94CE02CF93DF93EC0160E00E940103C3
:10062000BE01DF91CF910C94CC020E943F2081113A
:1006300002C00E94E5200E945D0F0C94A4050C945A
:10064000A60508950C94210381E008950C942403D9
:10065000CF93C82F0E9422038C2FCF910C94260396
:1006600008950E94C0190E9430032FEF84E39CE09C
:10067000215080409040E1F700C000000C942222FD
:100680000F931F93CF93DF9300D0CDB7DEB78C01CC
:1006900061E00E9401039A838983B801CE0101962B
:1006A0000E941812811108C080E00F900F90DF9116
:1006B000CF911F910F910895B80189819A810E946D
:1006C000C902882389F3B80189819A810E94C90EE1
:1006D000882351F3B80189819A810E947910882377
:1006E00019F3B80189819A810E94CB108823E1F225
:1006F000B80189819A810E94EE118823A9F2B8017C
:1007000089819A810E94900D882371F2F80182817B
:10071000882349F089819A818115FCE59F0739F08A
:100720008F3D9C4539F0C8010E94C502BECF0E9492
:100730003103BACF0E94E520B7CF90E080E0089562
:100740000895972F70E023E0929F600D711D112492
:10075000FB0196E0899FE00DF11D1124EE0FFF1FB4
:10076000E455FF4F859194910895FC01EE0FFF1F12
:10077000E452FF4F859194910895CF93DF930E94A7
:10078000A1030E94C904EC01811520E5920708F03D
:1007900041C0811530E4930708F0B4C0803E910554
:1007A00018F5803C910508F09DC0883A910570F4D9
:1007B000853A910508F08EC081309105F9F00097D7
:1007C000E9F00497D8F4D0E0C0E018C08F3B910561
:1007D000D0F7C85AD0E0CC0FDD1FCC5DDE4F0990BA
:1007E000D881C02DD4640AC08115904258F4C11537
:1007F00081E0D80718F4C83ED10528F7CE01DF9173
:10080000CF910895C11590E3D90708F071C0CE01CA
:100810009F706AC0811525E5920758F5811534E56A
:10082000930708F09EC0811542E5940750F4C11566
:1008300081E5D80708F469C0DC2FCC27C16FD06AE6
:10084000DDCF982F969596959E0123703327C1157D
:10085000D34508F077C0C1E0D0E002C0CC0FDD1F67
:100860002A95E2F720E2929FC0011124C82BD92BD0
:1008700067C0C11589E5D807A8F4C11598E5D9075F
:1008800008F074C0C11526E5D20708F09CCF8C2F64
:100890000E946005C82FD0E0DC2FCC27CC27DF7169
:1008A000D062ACCFC1153AE5D30708F464C0CE01DD
:1008B00090568115904208F086CF8D2F8F710E943F
:1008C000600590E0982F882788279F719C012C2B2A
:1008D000E901E6CFC55AD0E0CE5ADE4FC881D0E05C
:1008E000D0648CCF805C91090E94B503EC0186CF67
:1008F000CE019927D3FF03C0EC01D86C7FCFEC0168
:10090000D06C7CCFDF70D06A79CFCE01E4E09695D1
:100910008795EA95E1F783702C2F2695269523700D
:1009200090E2299F90011124382B8C2F8370C1E015
:10093000D0E002C0CC0FDD1F8A95E2F7C22BD32B8B
:10094000DC685CCFC1E0D0E002C0CC0FDD1F2A958F
:10095000E2F730E2939FC0011124C82BD92BDA684B
:100960004DCFD82FCC27C46FD06A48CFDC2FCC27EF
:10097000C06FD06A43CF8C2F8F700E94600534E027
:10098000D695C7953A95E1F7CF709C2FEC01D069C9
:1009900035CF82389105B1F1B0F48133910509F476
:1009A00075C048F48932910509F469C08A3291050D
:1009B00009F473C008958533910509F459C089334A
:1009C000910501F10895833E9105A9F138F4803E27
:1009D0009105F9F0823E910549F10895863E910511
:1009E000A9F1873E9105C9F1843E910519F5209141
:1009F000D20221FF1FC08091D10284FD14C087EE76
:100A000090E008952091D1022370A1F080EE90E053
:100A100008952091D10220FD47C03091D20230FFCD
:100A200009C024FF44C090E080E004C02091D102BE
:100A300022FDF7CF08952091D10222FD3BC03091D5
:100A4000D20230FDE3CF24FFF5CFEDCF2091D102CC
:100A500023FFF0CF24FDE7CFD2CF2091D10223FD99
:100A60002CC03091D20231FFEECF84EE90E0089599
:100A70002091D10225FFDECF89E290E008952091F8
:100A8000D10225FFD7CF85E390E008952091D102D0
:100A900026FFD0CF8AE290E008952091D10226FF70
:100AA000C9CF81E390E0089589E390E0089583EE53
:100AB00090E0089582EE90E0089586EE90E008952B
:100AC0009091D10292FF06C0282F28712830F9F4A6
:100AD000877F846093FF06C0282F28712831F1F4A6
:100AE000877E84612091D20220FF06C0382F3871A2
:100AF0003830D9F4877F816021FF06C0282F287104
:100B00002831D1F4877E816194FD877E0895282F56
:100B100024712430F9F68B7F8860DCCF282F247174
:100B2000243101F78B7E8861DDCF382F3171313070
:100B300019F78E7F8860E0CF282F2171213121F7AE
:100B40008E7E8861E1CF08950C94A3050C94390240
:100B5000E82FF0E0EC55FD4F8081089508951F9334
:100B6000CF93DF9325E531E0C1E0D0E0D90150E03B
:100B700040E08D918F3F91F0E82FE295EF70F0E02B
:100B800011A18F70BE0101C0660F8A95EAF7962FFA
:100B90009095912391A382A1862B82A34F5F5F4FF3
:100BA0004330510531F72D5F3F4F81E02B3538073A
:100BB000E9F61092A2021092A4021092A3021092DF
:100BC000A50282E00E943E06DF91CF911F910C9416
:100BD0001503EF92FF920F931F93CF93DF93E2EAF7
:100BE000F2E065E571E0C0E001E010E07B0150E07B
:100BF00040E030E0D7012D917D012F3FB9F0822FE9
:100C000082958F7090E0DC0190968C9190E02F702F
:100C100002C0959587952A95E2F780FD2BC0C80103
:100C2000042E01C0880F0A94EAF7382B4F5F5F4FFC
:100C300043305105F9F680818317F1F0308381E06C
:100C4000C82B31966D5F7F4FB1E06B357B0771F636
:100C50002C2F42E064EA72E082EA92E00E943F06B2
:100C60000E941F038C2FDF91CF911F910F91FF9056
:100C7000EF90089580E0D9CF80E0E2CF0895FF9211
:100C80000F931F93CF93DF93F82E092F162FD72F93
:100C9000C42F222349F081E08093CC010E94E321FC
:100CA0009093CB018093CA018091CC018823A1F05D
:100CB0008091CA019091CB010E94EF21069760F0CC
:100CC000EF2DF02FA12FBD2FCE0FDF2FD11DEC1751
:100CD000FD0741F41092CC01DF91CF911F910F914C
:100CE000FF90089581918D93F2CFEF92FF920F9331
:100CF0001F93CF93DF93EB01E82FD11110C0442352
:100D000021F0F0E0EA50FE4FE4916E2F7E2F8E2FFF
:100D1000DF91CF911F910F91FF90EF9008950D2FCC
:100D200010E0282F30E0442329F02A503E4FF901EB
:100D3000249130E0F6E0CF9FC0011124EFEFF0E006
:100D4000BF010E940729AB018C2F90E0880F991FEB
:100D5000A5E5A49FB001A59F700D1124861B970BDC
:100D6000982F990F980FBF01601B710B629FD001E4
:100D7000639FB00D729FB00D11248B2F9D9FB0010A
:100D80001124672F7727EF01C61BD70BBE01629F87
:100D9000E001639FD00D729FD00D11247F01E91AED
:100DA000F108E09EB001E19E700DF09E700D1124DF
:100DB000672F7727E61BF70BE29F8001E39F100D5B
:100DC000F29F100D1124E12F722F4230510599F03E
:100DD00048F44115510569F04130510581F0EB2F80
:100DE0008D2F07C04430510569F080F04630510521
:100DF000B1F76E2F8DCFE22F7B2F812FFACFE22F0D
:100E00007D2FF7CFEB2F822F712FF3CF7B2F822FE8
:100E1000ED2FEFCF41E00C9475060895CF93DF934B
:100E2000762FE901682F842F0E940A07798368834F
:100E30008A83DF91CF9108958091A602982F9E7F9B
:100E400029F4817082608093A60208958635E8F3C4
:100E500081708465F8CF88E090E00C941B2ACF92D3
:100E6000DF92EF92FF926B017C010E941C07B70199
:100E7000A60188E090E0FF90EF90DF90CF900C9477
:100E8000392AE6EAF2E083E0808311828FEF8283E1
:100E90008383148260817181828193810C942F07F6
:100EA0008091A60280FF02C08695089580E0089593
:100EB0009091AA02933018F49F5F9093AA0288231E
:100EC00051F06091A6027091A7028091A8029091C2
:100ED000A9020C942F07089581E00C945807909173
:100EE000AA02992319F091509093AA02882351F0F5
:100EF0006091A6027091A7028091A8029091A90228
:100F00000C942F07089581E00C946F0770E00C9407
:100F10006D0F609108018091A60280FF0AC0809148
:100F2000070123E0829FC001112485559D4F0C9439
:100F300086078091090190910A0123E0829FF001C8
:100F40001124E555FD4F891750F711821082128246
:100F50008F5F3396F8CF9091A60290FF14C09091C6
:100F6000090120910A0133E0939FF0011124E55516
:100F7000FD4F921710F00C948907818360834283A0
:100F80009F5F3396F6CF0895CF93DF9300D00F92F3
:100F9000CDB7DEB79091A60290FF0AC09E012F5FE9
:100FA0003F4F0E940E074B8169818A810E94AB07E7
:100FB0000F900F900F90DF91CF910895CF93DF9313
:100FC000EC01EC81F0E0EF50FF4F4491E6EAF2E0F3
:100FD000628181810E94C4078C818F5F8C83DF9145
:100FE000CF910895CF93DF93EC01E6EAF2E04381DD
:100FF00062818C810E94C4078C818F5F8C83DF911A
:10100000CF9108950F931F93CF93DF9300D00F924A
:10101000CDB7DEB78C018091CD0181110AC09E0150
:101020002F5F3F4F4FEF6FEF0E940E078A81809333
:10103000CD01F8016481613069F08091CD0140E01B
:10104000662361F040E0623011F44091CD0180E010
:1010500060E004C06091CD0140E080E00E94AB07F9
:10106000F801848190E0019663E070E00E941B2902
:1010700084830F900F900F90DF91CF911F910F916C
:101080000895AF92BF92CF92DF92EF92FF920F93AB
:101090001F93CF93DF9300D00F92CDB7DEB7182FF9
:1010A000F62E042FE22E9091A60290FF29C0E92F80
:1010B000E695AE2FB0E0A55ABE4F8C9180930E02FC
:1010C0009E7F923059F59E012F5F3F4F812F0E94E6
:1010D0000E074B8169818A810E94AB071093A7029A
:1010E000F092A8020093A902EE2051F06091A602AE
:1010F0007091A7028091A8029091A9020E942F07E7
:101100000F900F900F90DF91CF911F910F91FF9053
:10111000EF90DF90CF90BF90AF900895823019F498
:101120000091A902DBCF863019F41091A702D6CF27
:101130008930D9F3893191F6E9518E2F8170D82EFB
:10114000E695F0E0EF50FE4FA590B490C12CBB2483
:1011500060910B01C61618F00E948907BFCF2C2D95
:1011600030E0A29EC001A39E900DB29E900D11246E
:1011700070E00E940729812FD11013C0860F409183
:101180000901420F532F511D9A01220F331F240FC3
:10119000351F25553D4F402F6F2D0E940E07C394DC
:1011A000D7CF861BECCFE6EAF2E09181282F43816E
:1011B000628188E0890F0C94410881E00C94D30887
:1011C000E6EAF2E09181282F4381628188EF890F5E
:1011D0000C94410881E00C94E008E6EAF2E06281B8
:1011E00028E0620F08F46FEF282F438181810C946F
:1011F000410881E00C94ED08E6EAF2E0628128E023
:10120000621B08F460E0282F438181810C9441081F
:1012100081E00C94FC08E6EAF2E0438128E0420F0A
:1012200008F44FEF282F628181810C94410881E0FE
:101230000C940B09E6EAF2E0438128E0421B08F433
:1012400040E0282F628181810C94410881E00C9458
:101250001A0921E00C94410820E00C944108EF9217
:10126000FF921F93CF93DF93EC0110E0EE24EA94FA
:10127000F12C60910B01161770F00E9489079A817A
:101280008C8190FF27C08F5F8C83DF91CF911F915E
:10129000FF90EF90089520910901422F410F5527AB
:1012A000551FCA019A01220F331F280F391F2555D8
:1012B0003D4F70E0C7010E941B29962F8C81409101
:1012C000A9026091A802199F800D11240E940E07A7
:1012D0001F5FCFCF8150D8CFAF92BF92CF92DF9216
:1012E000EF92FF920F931F93CF93DF93FC018281C4
:1012F0000FEF80FF01E010E04BE0A42E80910B0186
:101300001817C8F00E9489078091CF01013009F0B9
:1013100055C0811102C080910B0181508093CF0193
:10132000DF91CF911F910F91FF90EF90DF90CF90C1
:10133000BF90AF900895C0910901C12ED12CCC0D62
:10134000DD2DD11DCE01880F991FC80FD91FC5559E
:10135000DD4F198218821A8234E0E32EF12CB12C71
:101360008091CF018B0D8C301CF16A2D0E94F928E1
:10137000892F082E000C990BC816D90691F480917C
:10138000A9028E9DA0018F9D500D11245595479562
:10139000559547959E016091A8028091A7020E94F1
:1013A0000E07B00EF1E0EF1AF108D1F61F5FA6CFDD
:1013B00087FFDFCF90910B01890FDBCF90E0019683
:1013C00060910B0170E00E941B29A8CF0F931F931F
:1013D000CF93DF938091090190910A0123E0829FCE
:1013E000F0011124E555FD4F891740F1C0E0D3E02D
:1013F00060910B01C61740F10E94890720910501F9
:101400008091CE01820F8093CE0190910601920FC0
:1014100090930601191654F4082E000C990B409174
:101420000B014150550B841795071CF02195209313
:101430000501DF91CF911F910F91089511821082C4
:1014400012828F5F3396D0CF0C2F10E070E0C8016E
:101450000E941B2920910901820F482F50E0209102
:10146000CE01022E000C330B02171307BCF02091A3
:101470000601022E000C330B201731077CF08D9FE4
:101480009001112425553D4F4091A9026091A80279
:101490008091A7020E940E07CF5FAACFFA01EE0F3C
:1014A000FF1FE40FF51FE555FD4F118210821282D8
:1014B000F3CF8F929F92AF92BF92CF92DF92EF9233
:1014C000FF920F931F93CF93DF93EC014C81042F76
:1014D00010E09801D8010E945F299B01AC010E9495
:1014E00075294B015C01E0E2F0E0E01BF10BA5E5A2
:1014F000B0E0AC019B010E9475296B017C019F014A
:10150000DF010E9457299B01AC010E9480299B01A9
:10151000AC01280D391D4A1D5B1DC701B6010E9493
:101520002F29F22E822F90E039E23F1560F143E03F
:10153000249F9001112435952795122F109500E0D6
:1015400085E5E82EEF1880910B01081758F10E94ED
:1015500089079C8181E0992319F0903219F48FEF6B
:101560008093040180910401890F8C83DF91CF91D6
:101570001F910F91FF90EF90DF90CF90BF90AF90B1
:101580009F908F90089525E530E0B901681B790B95
:101590009B01220F331F260F371F37FFCCCF2F5F42
:1015A0003F4FC9CF8E2D01FD8F2D20910901622F54
:1015B000600F7727771F9B01220F331F260F371FDE
:1015C00025553D4F412F6091A8020E940E070F5FE5
:1015D000BACF0F931F93CF93DF93EC0110E000E09D
:1015E00090910B019017110609F06CF40E94890785
:1015F0008C8190E00196817099278C83DF91CF9147
:101600001F910F91089520910901A801420F511DCA
:101610009A01220F331F240F351F25553D4F4C8152
:101620006091A8028091A70296959017110651F03B
:101630004CF0442349F04091A9020E940E070F5F2D
:101640001F4FCECF4423B9F340E0F7CF8F929F9244
:10165000AF92BF92CF92DF92EF92FF920F931F93C0
:10166000CF93DF93FC01B280948081E0848300E01B
:1016700015E05BE4A52E88248394EE24EA94F12CF3
:101680007BE4C72ED12C80910B01081770F0DF91FD
:10169000CF911F910F91FF90EF90DF90CF90BF906F
:1016A000AF909F908F900C948907C02FD0E01C9F23
:1016B000F0011D9FF00D1124E053FE4F91101CC04E
:1016C0001382128220910901CE01820F911D9C018B
:1016D000220F331F280F391F25553D4F1C9FF00146
:1016E0001D9FF00D1124E053FE4F428161818081E6
:1016F0000E940E070F5FC7CF2381222379F121506B
:10170000238334818A2D821B311101C0822F1C9FBB
:10171000F0011D9FF00D1124E053FE4F9091A9029E
:10172000899FC0011124B6010E94072962832111FB
:1017300004C0332311F01482A38222E02B1510F28F
:101740001C9FF0011D9FF00D1124E053FE4F80916E
:10175000A70280838091A8028183B4CF0E94F629DA
:10176000823091400CF0AECF82E08B1530F50E94B4
:10177000F629B7010E941B291C9FF0011D9FF00D47
:101780001124E053FE4F808322E02B15C8F40E9401
:10179000F6292091A8022695622F70E00E941B294D
:1017A000280F1C9FF0011D9FF00D1124E053FE4FE8
:1017B00021831282A382848285CF8091A702DCCF0D
:1017C0002091A802EECFE6EAF2E080818E7F80834E
:1017D00060817181828193810E942F0710920F0294
:1017E0002FEF80E792E0215080409040E1F700C069
:1017F00000000C948907E6EAF2E080818E7F808306
:1018000010920F022FEF80E792E02150804090402D
:10181000E1F700C000000C9489076091A60266956C
:1018200070E04BE050E08CE091E00E94062A892BAA
:1018300019F481E080930F020E94E3219093080243
:101840008093070208959091A60290FF35C0917091
:10185000811128C092609093A602662351F0609196
:10186000A6027091A7028091A8029091A9020E94FD
:101870002F076091A602669570E04BE050E08CE087
:1018800091E00E94062A892BA1F010920F0281E0BC
:1018900080930A024091A9026091A8028091A70258
:1018A0000C942C098B3210F09465D5CF880F982BAF
:1018B000D2CF0E940D0CEBCF0895682F9091A60215
:1018C000969581E0890F8B3208F081E00C94230C0F
:1018D00081E00C945D0C682F9091A60296958FEF95
:1018E000890F09F48AE20C94230C81E00C946B0CB0
:1018F00061E00C94230CE6EAF2E080818160808351
:1019000086950C94780C8091A60280FD0C94E30BD4
:101910000C947B0C60E00C94230C80910D028111DF
:101920002EC00E943F20811104C00E94E5200E9429
:1019300041070E942B076093A6027093A702809331
:10194000A8029093A9026E7F61F40E9441070E9451
:101950002B076093A6027093A7028093A80290932E
:10196000A9020E941C0710920F028091A60280FF1C
:1019700003C086950E948A0C81E080930D02089531
:10198000E6EAF2E080818160808386950C948A0C7F
:1019900010920F0208950F931F93CF93DF938091BE
:1019A0000F02882309F49DC080910E02E091A602E7
:1019B000E695E81BE09309028230C9F5F0E0E351B7
:1019C000FF4FE491CE2FD0E00EED17E080910A0298
:1019D000882389F010920A020E94E3219E0120953B
:1019E0003095820F931F9093080280930702109204
:1019F0000C0210920B0280910702909108020E9443
:101A0000EF218C179D0708F46CC0E0910702F0915C
:101A10000802CE0FDF1FD0930802C093070287E0B1
:101A200092E0F801DF91CF911F910F9109948630D8
:101A300049F4F0E0E651FF4FE491CE2FD0E002EF01
:101A400017E0C4CF893051F4E695F0E0E951FF4F3B
:101A5000E491CE2FD0E00FE219E0B8CF8F3051F4EF
:101A6000E695F0E0EC51FF4FE491CE2FD0E00CE68C
:101A700019E0ACCF853149F4F0E0EF51FF4FE4912C
:101A8000CE2FD0E006EE19E0A1CFC8E2D0E009E504
:101A90001AE0883109F49ACF833239F4EFEDF0E09F
:101AA000C591D49102E018E091CFC4EFD1E009EEE6
:101AB0001AE0843209F48ACFC0EDD7E00DE017E0D8
:101AC000853209F083CF8E2F63E00E94ED28E92F45
:101AD000F0E0E452FF4FE491CE2FD0E006E21BE0AD
:101AE00075CFDF91CF911F910F910895FA01811168
:101AF00001C0FB010994CF93DF93C82FD62F0E941A
:101B000050078C1740F00E9450078D1720F4DF918A
:101B1000CF910C94680C8C2FDF91CF910C94780CA2
:101B20000F931F93CF938C01FB01C281CC2309F447
:101B300065C00E94431F8272F801E25CFC45E431FB
:101B4000F10538F4E458F54D0C9451290E94830CAA
:101B5000C0E08C2FCF911F910F91089545E75CE075
:101B600068E67CE00E94760DF3CF48E65CE065E72E
:101B70007CE0F8CF4AEE58E06DED78E0F3CF4DED24
:101B800058E06AEE78E0EECF48E059E069EF78E09F
:101B9000E9CF49EF58E068E079E0E4CF46E259E068
:101BA00067E179E0DFCF47E159E066E279E0DACF3B
:101BB00043E857E06CE677E0D5CF4CE657E063E8C2
:101BC00077E0D0CF81E00E94780CC2CF65E082E060
:101BD0000E947B0DBDCF68E086E0FACF6EE089E021
:101BE000F7CF64E18FE0F4CF67E185E1F1CF88E1E1
:101BF000EACF62E289E1ECCF83E2E5CFC1E0A9CF91
:101C00000E943F20811102C00E94E5200E946D20A9
:101C10008093CC02803420F0877088638093CC025C
:101C20009091CC02892F817090FF04C0892F8695F6
:101C3000869586950C94FE0E8091CC02982F9695F1
:101C400096959695973040F49F5F990F990F990F4D
:101C50008770892B8093CC028091CC028160809325
:101C6000CC020E9471208091CC0286958695869543
:101C70000C94FE0E8091CC02982F987F79F08850BA
:101C80008093CC02887F91E009F490E08091CC02AF
:101C900090FB80F98093CC020E9471208091CC024D
:101CA0008695869586950C94FE0E8091CC0280FDDB
:101CB00013C081608093CC02813019F489E0809355
:101CC000CC028091CC020E9471208091CC0286953A
:101CD000869586950C94FE0E08958091CC0280FF27
:101CE00008C08E7F8093CC020E94712080E00C940B
:101CF000FE0E08958091CC0280FD0C946D0E0C9424
:101D0000550E9091CC02892F8695869586958F5F8A
:101D10008F7197708830D8F4880F880F880F892BBF
:101D20008093CC028091CC02887F91E009F490E00E
:101D30008091CC0290FB80F98093CC020E947120AC
:101D40008091CC028695869586950C94FE0E909394
:101D5000CC02E8CF883008F087E09091CC029770F1
:101D6000282F220F220F220F922B9093CC02987FC4
:101D700021E009F420E09091CC0220FB90F99093AF
:101D8000CC020C94FE0E0E94AA0E8091CC020C9400
:101D900071209C01FB018281882349F12D3BFCE5E8
:101DA0003F07C9F040F42B3BECE53E0769F02C3BC4
:101DB0003C4579F008952F3B9CE5390791F070F090
:101DC000203C3C4589F0089587E00E94C30E80E0E6
:101DD000089580E0FACF0E943A0EF9CF0E941C0EBF
:101DE000F6CF0E947A0EF3CF0E94810EF0CF81E0F1
:101DF0000895269A2E9808952E980895CF92DF92EE
:101E0000EF92FF92CF93C82F883040F5811127C001
:101E1000809180008F7D809380000E94FC0E2C2F8B
:101E200030E0AFEFBFEF0E945F2927E030E040E0F5
:101E300050E00E942F29C9012C3764E13607A8F42D
:101E400069E070E00E94072970938B0060938A001C
:101E5000CF91FF90EF90DF90CF900895C7E08091F1
:101E60008000806280938000DACF2A50374D4F4F38
:101E70005F4F942F832F722F662725EF38E241E0C2
:101E800050E00E942F2969017A01CA01B9010E941C
:101E9000DD289B01AC01C701B6010E94DD28672F38
:101EA000782F892F99276115710521E08207910507
:101EB00059F66FEF7FEFC8CF08950E94F90E82E2C6
:101EC0008093800089E1809381008FEF9FEF909352
:101ED0008700809386000C94000E539A4BB1477F85
:101EE0005BB15860EFB7F8949B01220F331F260FA8
:101EF000371F280F391F2817390741F4EFBF8FE527
:101F000094E00197F1F700C000000895DC016D91A5
:101F1000CD0178E05BB9000000C067FF4BB9660FE8
:101F2000000000C000C000C04BB900C07A9591F716
:101F3000E2CF0C9478025198599A85988D9A89B17C
:101F4000869581707D9905C090E0892B809312025F
:101F5000089592E0FACFE0911202EE0FEE0FE093B7
:101F6000120249B141FB882780F94FB145FB222776
:101F700020F945FF02C022E030E0822BE82BE093FD
:101F80001202EF70F0E0EA57FE4F8081909111024B
:101F9000890F8093110284304CF0809110028F5F82
:101FA0008093100260E080E00E94990F80911102FE
:101FB0008D3F4CF48091100281508093100261E0BB
:101FC00080E00E94990F80911102837887FF03C0FF
:101FD00081508C6F8F5F809311020895AF92BF92F2
:101FE000CF92DF92EF92FF920F931F93CF93DF93E5
:101FF0007C015B01C42FD22FFC0182818823F9F080
:10200000409315020E94E3219093140280931302DF
:1020100080E28C0F883008F061C0C77081E001C099
:10202000880FCA95EAF7DF91CF911F910F91FF902A
:10203000EF90DF90CF90BF90AF900C94531710911A
:102040001502141340C080911302909114020E9453
:10205000EF216C01B701C5010E94361CC816D906D4
:1020600090F5C0E2CD0F1D17B9F080E2810F8830E6
:1020700040F4177081E001C0880F1A95EAF70E94BA
:102080005A17C83048F481E09D2F977001C0880F1F
:102090009A95EAF70E945317802F0E944017C83084
:1020A000E8F4D77081E001C0880FDA95EAF7DF9194
:1020B000CF911F910F91FF90EF90DF90CF90BF9045
:1020C000AF900C945A1780E28C0F883038F4C770A8
:1020D00081E001C0880FCA95EAF7E9CFDF91CF917F
:1020E0001F910F91FF90EF90DF90CF90BF90AF9036
:1020F00008950F939C01CB01243F4CE5340759F11F
:10210000A8F4283DFCE53F0701F1293D4CE53407E3
:10211000D1F1273D3C4591F406E221EE41EE67ED19
:102120007CE50E94EE0F80E00F910895263FFCE5CC
:102130003F07E9F0B0F0273F3C45F9F0FC01828110
:10214000882339F110921502EFCF07E225EE45EE14
:1021500068ED7CE5E6CF06E221EE40EE64EF7CE53B
:10216000E0CF07E225EE44EE65EF7CE5DACF06E24C
:1021700021EE42EE66EF7CE5D4CF07E225EE46EE97
:1021800067EF7CE5CECF08E221E045EE69ED7CE526
:10219000C8CF81E0C9CFCF93DF93EC01FB018281EF
:1021A000882309F419C1C230FCE5DF07C0F1C6314C
:1021B0009CE5D90730F09E012B5F3C452930310565
:1021C00070F50E9452209093D2028093D102C031C8
:1021D000ECE5DE0709F4CFC008F05BC0C8308CE541
:1021E000D80709F4B6C088F5C430ECE5DE0709F479
:1021F000A8C0C0F4C2308CE5D80709F49CC0809117
:10220000D1028260C330DC4509F498C08091D102CC
:102210009091D2020E9460200E94C01980E0DF915C
:10222000CF9108958091D1028061C630ECE5DE0740
:1022300009F484C08091D1028860C730DC4508F47D
:102240007DC08091D102806279C0CC308CE5D80706
:1022500009F489C070F48091D1028C60CA30ECE539
:10226000DE0709F46BC008F478C08091D1028E7F3C
:1022700065C0CE308CE5D80709F479C08091D102D1
:102280008B7FCF30DC4508F459C08091D1028F7E1E
:1022900055C0CC3FECE5DE0709F457C030F5C3313B
:1022A0008CE5D80709F46FC078F4C131ECE5DE079E
:1022B00009F465C0C231DC4509F0A8CF0E94C019FD
:1022C0008091D1028F773AC0C5318CE5D80709F4E7
:1022D00062C008F476C08091D2028160CB3FDC45B9
:1022E00009F094CF8093D20291CFC115FDE5DF07AD
:1022F00009F44DC088F48091D2028D7FCE3F9CE5D9
:10230000D90781F38091D2028E7FCF3FDC4550F315
:102310008091D2028360E6CFC230FDE5DF0709F489
:1023200059C008F444C080E0C330DD4509F06ECFE9
:102330000E94E7206BCF8091D10281608093D1020F
:1023400065CF8091D1028460F9CF8091D202826002
:10235000C9CF8091D1028064F1CF0E94C0198091D1
:10236000D1028068EBCF8091D1028D7FE7CF809141
:10237000D102877FE3CF8091D1028F7DDFCF809123
:10238000D1028F7BDBCF8091D102837FD7CF809129
:10239000D2028C7FA7CF8091D10282FB992790F93E
:1023A00021E0922790FB82F990FB83F9C7CF8091BF
:1023B000D202982F909591708E7F892B90FB81F996
:1023C00091CF0E94C0199091D102892F97FB87F974
:1023D0008058B4CF81E0ACCF81E021CFCF93DF93A1
:1023E000EB0186319C4511F50E94431F9A81992388
:1023F00099F08A7A91E009F490E0909316028111A5
:1024000009C089E20E941E1F0E948F1F80E0DF9199
:10241000CF91089585E3F6CF80911602811104C013
:1024200089E20E94251FF0CF85E3FBCF81E0EFCF4B
:102430004F925F926F927F928F929F92AF92BF92D4
:10244000CF92DF92EF92FF920F931F93CF93DF9380
:10245000EC01E881F981CF01815095458F3F9105CD
:1024600010F485E5F827DB0112964C90442009F41E
:102470006AC2EF3FF10509F100F1EE3DFC4521F0A4
:1024800010921702A42D07C08091170291E08927AE
:1024900080931702A0E08A2FDF91CF911F910F91B7
:1024A000FF90EF90DF90CF90BF90AF909F908F9074
:1024B0007F906F905F904F900895A0911702AA238C
:1024C00009F4E9C010921702E03CF105F0F5E0389C
:1024D000F10508F0AAC0E034F10508F070C021E071
:1024E00030E040E050E060E070E080E090E00E2FEF
:1024F0000E948829B09118022B2BB09119023B2B16
:10250000B0911A024B2BB0911B025B2BB0911C02B5
:102510006B2BB0911D027B2BB0911E028B2BB091C7
:102520001F029B2B209318023093190240931A022A
:1025300050931B0260931C0270931D0280931E0235
:1025400090931F02F983E883A6CFEF3FF10509F0CE
:1025500030F621E030E040E050E060E070E080E004
:1025600090E08F01005C11090E948829B09130022F
:102570002B2BB09131023B2BB09132024B2BB091FF
:1025800033025B2BB09134026B2BB09135027B2B65
:10259000B09136028B2BB09137029B2B20933002E7
:1025A00030933102409332025093330260933402ED
:1025B000709335028093360290933702C3CF21E0A7
:1025C00030E040E050E060E070E080E090E08F01BB
:1025D000005411090E948829B09120022B2BB09140
:1025E00021023B2BB09122024B2BB09123025B2B9B
:1025F000B09124026B2BB09125027B2BB091260267
:102600008B2BB09127029B2B209320023093210229
:102610004093220250932302609324027093250278
:1026200080932602909327028DCF21E030E040E096
:1026300050E060E070E080E090E08F010058110908
:102640000E948829B09128022B2BB09129023B2BA4
:10265000B0912A024B2BB0912B025B2BB0912C0234
:102660006B2BB0912D027B2BB0912E028B2BB09156
:102670002F029B2B209328023093290240932A0299
:1026800050932B0260932C0270932D0280932E02A4
:1026900090932F0257CFE034F10508F06BC0709093
:1026A00018028090190290901A02D0911B02C091DA
:1026B0001C02B0911D0250901E0260901F0221E08A
:1026C00030E040E050E060E070E080E090E00E2F0D
:1026D0000E94882959016A017B018C01272D2A213A
:1026E000382D3B21492D4C215D2F5D216C2F6E2112
:1026F0007B2F7F21852D8023962D91230E94A12958
:1027000009F0C0CEE03CF10508F08EC0E038F105DC
:1027100008F0EBC0E034F10508F0B9C021E030E08A
:1027200040E050E060E070E080E090E00E2F0E941A
:1027300088292095309540955095609570958095A5
:1027400090952721382149215D236C237B23852106
:102750009621209318023093190240931A02509345
:102760001B0260931C0270931D0280931E029093C3
:102770001F0291CEE038F105E0F4709020028090C5
:10278000210290902202D0912302C0912402B091A4
:102790002502509026026090270221E030E040E0C0
:1027A00050E060E070E080E090E08F01005411099B
:1027B0008FCFE03CF105E0F4709028028090290270
:1027C00090902A02D0912B02C0912C02B0912D0240
:1027D00050902E0260902F0221E030E040E050E067
:1027E00060E070E080E090E08F010058110970CF48
:1027F000709030028090310290903202D09133027A
:10280000C0913402B0913502509036026090370288
:1028100021E030E040E050E060E070E080E090E0F7
:102820008F01005C110954CFEF3FF10511F008F062
:1028300075CF8F01005C110921E030E040E050E0ED
:1028400060E070E080E090E00E948829209530955B
:1028500040955095609570958095909527213821E9
:1028600049215D236C237B2385219621209330020F
:10287000309331024093320250933302609334021A
:1028800070933502809336029093370204CE8F0105
:102890000054110921E030E040E050E060E070E0D9
:1028A00080E090E00E9488292095309540955095D1
:1028B00060957095809590952721382149215D2359
:1028C0006C237B23852196212093200230932102C3
:1028D00040932202509323026093240270932502B6
:1028E0008093260290932702D6CD8F0100581109BC
:1028F00021E030E040E050E060E070E080E090E017
:102900000E94882920953095409550956095709546
:10291000809590952721382149215D236C237B23C5
:1029200085219621209328023093290240932A0280
:1029300050932B0260932C0270932D0280932E02F1
:1029400090932F02A8CDA1E0EF3FF10509F0B8F573
:10295000E034F105B0F58090180290901902D09102
:102960001A02C0911B02B0911C02A0911D0260903E
:102970001E0270901F0221E030E040E050E060E075
:1029800070E080E090E00E2F0E94882959016A01D2
:102990007B018C01282D2A21392D3B214D2F4C21E3
:1029A0005C2F5D216B2F6E217A2F7F21A1E0862D78
:1029B0008023972D91230E94A12909F4A0E0A17002
:1029C0006ACDE038F105E0F4809020029090210279
:1029D000D0912202C0912302B0912402A09125023D
:1029E00060902602709027028F010054110921E0A7
:1029F00030E040E050E060E070E080E090E0C4CF84
:102A0000E03CF105A0F48090280290902902D0913A
:102A10002A02C0912B02B0912C02A0912D0260904D
:102A20002E0270902F028F0100581109E0CF809084
:102A3000300290903102D0913202C0913302B091B5
:102A40003402A091350260903602709037028F01F7
:102A5000005C1109CCCF90933D0280933C02089515
:102A6000E0913C02F0913D02309721F00190F0811D
:102A7000E02D099480E00895E0913C02F0913D0240
:102A8000309721F00280F381E02D09940895209180
:102A90003A0230913B022817390771F090933B02BC
:102AA00080933A02E0913C02F0913D02309721F090
:102AB0000680F781E02D0994089520913802309125
:102AC00039022817390771F0909339028093380240
:102AD000E0913C02F0913D02309721F00084F185B5
:102AE000E02D0994089585B7806885BF85B7806813
:102AF00085BF0895089508950C947A1508950C944F
:102B00007E150E9473150E947B150C947C1581E044
:102B100008950C9487150E94DA210E94AF050E9447
:102B200033220E94000E0E948D0C0E949B0F0C9479
:102B30007F15AF92BF92CF92DF92EF92FF920F93E9
:102B40001F93CF93DF93CDB7DEB72A970FB6F894D4
:102B5000DEBF0FBECDBF0E94E9050E948915882304
:102B600009F464C08FE3A82E82E0B82E10E000E0E4
:102B7000C02E802F0E94A805E82EF501D1905F019C
:102B8000D81609F450C08091940281FD0E94AE05D0
:102B900080E0FF24F394DE249D2D9F2109F43EC0A4
:102BA0008E83CF82EF2081E009F480E088870E9445
:102BB000E3218160782F9A8789874E815F816885BC
:102BC0008A850E943816F801E15CFD4F8081F82665
:102BD000F0820E94CB0C0E945C0F0E94AB0F0E94FF
:102BE000301590913E02891791F10E943015809323
:102BF0003E022A960FB6F894DEBF0FBECDBFDF911E
:102C0000CF911F910F91FF90EF90DF90CF90BF90E9
:102C1000AF900C94280301E010E0AACF8F5FFF0C67
:102C2000833009F0B9CF01301105A9F78FEF8983FF
:102C30008A831B820E94E3218160782F9D838C838D
:102C400049815A816B818D810E943816C2CF2A96A4
:102C50000FB6F894DEBF0FBECDBFDF91CF911F91AD
:102C60000F91FF90EF90DF90CF90BF90AF900895BD
:102C7000CF93DF93CDB7DEB72B970FB6F894DEBFB7
:102C80000FBECDBF4F83588769877A878B871E8297
:102C90001D8285E0FE013796DE01119601900D92AE
:102CA0008A95E1F749815A816B817C818D819E8172
:102CB0002B960FB6F894DEBF0FBECDBFDF91CF913C
:102CC0000C94391CFC01808191810C94F01ECF93EF
:102CD000C82F882309F483C08238C1F40E943015BC
:102CE00081FD7DC089E30E941E1F0E948F1F2FEF70
:102CF00081EE94E0215080409040E1F700C0000058
:102D000089E30E94251FCF910C948F1F8338A1F473
:102D10000E94301580FD63C083E50E941E1F0E9443
:102D20008F1F2FEF81EE94E0215080409040E1F71B
:102D300000C0000083E5E5CF8438A1F40E9430157F
:102D400082FD4DC087E40E941E1F0E948F1F2FEF3F
:102D500081EE94E0215080409040E1F700C00000F7
:102D600087E4CFCF8CEF8C0F813A90F46C2F809159
:102D70001701909118010E94FE20882329F08C2FC2
:102D80000E94251F0E948F1F8C2F0E941E1FBBCFE9
:102D900080E28C0F883048F4C77081E001C0880F52
:102DA000CA95EAF70E94461FAECFEBE5EC0FE33081
:102DB00040F4F0E0EC53FE4F808190E0CF910C9412
:102DC0004715C85AC73158F4EC2FF0E0EE0FFF1F3B
:102DD000EA56FE4F80819181CF910C945D15CF9181
:102DE0000895882309F44BC0823871F40E9430158D
:102DF00081FF45C089E30E941E1F0E948F1F89E347
:102E00000E94251F0C948F1F833859F40E9430159F
:102E100080FF35C083E50E941E1F0E948F1F83E53F
:102E2000EFCF843859F40E94301582FF28C087E420
:102E30000E941E1F0E948F1F87E4E2CF9CEF980F15
:102E4000913AF0F290E2980F983050F4877091E048
:102E500001C0990F8A95EAF7892F0E944C1FD2CFA3
:102E60009BE5980F933020F490E080E00C94471598
:102E7000885A873120F490E080E00C945D15089525
:102E8000CF93C82F0E946716C93349F42FEF87EEFE
:102E900093E0215080409040E1F700C000008C2F6B
:102EA000CF910C94F116882321F00E94461F0C94B8
:102EB0008F1F0895882321F00E944C1F0C948F1FB0
:102EC0000895BF92CF92DF92EF92FF920F931F93DC
:102ED000CF93DF936C01D62FC72FFC01058102959C
:102EE0000F70128111110E94631F0E943C1FE82E77
:102EF000882391F01123D1F08C2F807F803421F032
:102F000080E28D0F883090F082E00E94DA1F0E94EC
:102F10003C1F91E0E82EE926BC2EB2949FE0B92236
:102F2000EB2DF0E0E057F54D0C945129E12CF4CF56
:102F30000C2F0F70C07F11F00295007F1123A9F0B4
:102F4000002359F080E28D0F883010F0D11109C0B4
:102F5000802F0E94461F0E948F1F8D2F0E94671690
:102F600014C0802F0E94561FF6CF8D2F0E94F1169D
:102F7000002359F080E28D0F883010F0D1112CC061
:102F8000802F0E944C1F0E948F1F2B2D2850330B27
:102F90002430310520F40E9430150E942803EE20D1
:102FA00009F493C10E94381F80FD8FC1F60112827F
:102FB0000E94321F0E94BD1DC6010E9486190E94F8
:102FC000321FDF91CF911F910F91FF90EF90DF9013
:102FD000CF90BF900C94DE1D802F0E945C1FD3CF3A
:102FE000FC2FFF70FF2EC07FC03219F0F29480EFEB
:102FF000F822DD2369F0D13049F1112391F100234A
:1030000051F1F601858180FFA8CF8F70858323C0A1
:10301000112381F0011106C00E94761F8F290E94A2
:103020005317B3CF0130C1F70E94761F8F290E943A
:103030007C1FABCF011106C00E94851F8F2D0E94FF
:103040005A17A3CF013009F4A0CFF6CF112329F0EE
:10305000063008F09ACF8F2DE2CF053008F095CFDB
:10306000EDCF002359F3D93349F4FFEF27EE33E0D6
:10307000F15020403040E1F700C000008D2F0E9449
:10308000F11683CF8C2F86958695837069F08130F9
:1030900009F07BCF8D2F9C2F9370111102C090E00F
:1030A00080E00E945D1571CF8D2F9C2F93701111C0
:1030B00002C090E080E00E94471567CF8C2F83709C
:1030C00009F041C0111161CF4D2F429546954770CF
:1030D000440F440F0D2F0F7010E030E020E0042E5D
:1030E00004C0000F111F221F331F0A94D2F760E0A3
:1030F00070E0CB01D4FF0FC06FE070E080E090E0A3
:1031000004C0660F771F881F991F4A95D2F76095F4
:10311000709580959095C695C695C370602B712B60
:10312000822B932BC23049F058F4C13019F00E9421
:103130006F1D2BCF0E945D1D28CF0E94811D25CFC2
:103140000E945B1D22CF8695112311F08C2F817078
:10315000882309F41ACF4D2F429546954770440FA6
:10316000440F0D2F0F7010E030E020E0042E04C05B
:10317000000F111F221F331F0A94D2F760E070E086
:10318000CB01D4FF0FC06FE070E080E090E004C09E
:10319000660F771F881F991F4A95D2F76095709523
:1031A00080959095C695C695C370602B712B822B28
:1031B000932BC23049F058F4C13019F00E94341EEC
:1031C000E4CE0E94221EE1CE0E94461EDECE0E9468
:1031D000971DDBCECF70112329F08C2F0E94BD1DCF
:1031E0008D2F1DCF8D2F0E945A178C2F0E94DE1D10
:1031F000CCCED23F89F160F4D03FC9F0D13F29F164
:10320000112309F442C00111A8CE8C2F8F7121C067
:10321000D33F39F1D43FA1F7112369F1CF718C2F3E
:103220000E94BD1D63E08C2F0E94C51FAECE1123EE
:1032300041F0053008F0A9CE8C2F8F710E94011E3D
:10324000A4CE063008F0A1CEF7CF8C2F8F711123BA
:1032500069F20E94BD1D99CE8C2F8F711123C9F385
:10326000C5CF112329F08C2F8F710E94A81D8DCE00
:103270000E94A31D8ACE81E00E94DA1F023008F46A
:1032800084CE82E00E94DA1F80CE002359F0D93329
:1032900009F0F4CE8FEF97EEE3E081509040E040EC
:1032A000E1F7EACE8C2F8F71A1CF4C2F4F706D2F8D
:1032B000C6010E949D030E94D31C67CE4C2F4F7005
:1032C0006D2FC6010E94A00360CEDF91CF911F91A8
:1032D0000F91FF90EF90DF90CF90BF9008950F93E4
:1032E0001F93CF93DF93EC01688179818A810E94DB
:1032F000FA1E8C010E94581E0E945A1DB801CE0170
:10330000DF91CF911F910F910C946117CF93DF93B1
:10331000EC018B819C81892B29F0888199818923FB
:103320008F3F59F4DF91CF910895CE010E946F191C
:10333000CE01DF91CF910C940A03CE010E9440038D
:103340008111F3CF0E943C1F882361F38A81882377
:1033500049F382E0DF91CF910C94DA1F0E94631F42
:103360000E94731F0E948F1F90E080E00E9447150B
:1033700090E080E00C945D150E942C1F0C94AE1917
:103380000E94531F0C94BC19E92FE295EF70E25094
:10339000EE3070F4F0E0E056F54D0C945129803F8A
:1033A00019F020F4883E20F481E00895843FE1F391
:1033B00080E00895883EC0F3813FD1F7F5CF93FBBD
:1033C000882780F908950E94F01E0C94C419CF93A9
:1033D000DF9300D000D00F92CDB7DEB70F900F90E3
:1033E0000F900F900F90DF91CF910895CF93DF93BF
:1033F00000D000D000D0CDB7DEB726960FB6F89437
:10340000DEBF0FBECDBFDF91CF9108951F93CF9345
:10341000DF93C091420216E0809143028C1304C0F6
:10342000DF91CF911F910895D0E01C9FF0011D9F67
:10343000F00D1124EC5BFD4F40815181628173815D
:10344000848195810E94F6192196C770E5CF40913D
:1034500074025091750260917602709177028091AA
:103460007802909179020C94F6191F93CF93DF9311
:1034700080917902807FA9F480917602882389F077
:1034800080914202C0914302609174027091750272
:10349000A0917702B0917802D62FD72316E0C813F7
:1034A00004C0DF91CF911F91089590E0109711F023
:1034B000DF3F19F401968770F2CF189F9001199F92
:1034C000300D1124F901EC5BFD4F41814713F2CF20
:1034D00040814613EFCF42814111ECCF43815481AB
:1034E0004A1B5B0B483C510528F7809179028F708D
:1034F000806180937902F901E75BFD4F80818F70D5
:103500008061808384E792E00E948619DF91CF91E9
:103510001F910C94061AAF92BF92CF92DF92EF9256
:10352000FF920F931F93CF93DF93CDB7DEB76197D1
:103530000FB6F894DEBF0FBECDBF8C0185E0F80159
:10354000DE011D9601900D928A95E1F7F801408108
:103550005181E28084E7C82E82E0D82E6091770204
:10356000709178026115710509F461C1909174023E
:1035700020917502892F82238F3F09F458C1A380BF
:10358000B480F0907602F501E61BF70BFF2009F4FA
:10359000FCC080917902382F307FE83CF10508F0BB
:1035A000B2C0311179C0FE2C251323C0941321C061
:1035B000E1101FC08F708061809379020E94271AEA
:1035C000C6010E94861980917902F80185838F2DAA
:1035D00061960FB6F894DEBF0FBECDBFDF91CF91DD
:1035E0001F910F91FF90EF90DF90CF90BF90AF9021
:1035F0000895AB2829F0842F85238F3F09F033C12C
:1036000080E0F82FF170DF2E80FF3CC080914202F5
:103610002091430236E0821315C04D875E878D8569
:103620009E850E94F01E292F22952F702230F0F0E7
:10363000243018F59F70F1F0F8019581907FD1F456
:10364000D12C1EC090E0389FF001399FF00D11245D
:10365000EC5BFD4F6181651306C06081641303C09C
:1036600062816E110FC001968770D5CF9F7011F0E7
:10367000882331F3805E883018F3C8010E948619D0
:10368000FD2CA5CFEE2009F4A2CF809179028160B4
:1036900080937902F12C9BCF251306C0941304C0AC
:1036A000F801EE2009F48DC04D875E878D859E85DB
:1036B0000E94E319882319F1EE2009F18091790223
:1036C000803270F0209174023091750238872F8318
:1036D0001986BB86AA868C87CE0107960E9486191A
:1036E00086E0F801A4E7B2E001900D928A95E1F737
:1036F0000E94351A0E94271AFF24F39468CFC8014C
:103700000E948619F9CF311113C07A2DB98AA88A7F
:103710006E2D89890E94E71984E792E00E9486193C
:1037200086E0F60111928A95E9F70E94271AB2CF36
:1037300025130FC094130DC0E1100BC0F801858351
:10374000C8010E94861986E0F60111928A95E9F770
:103750003ECF4D875E878D859E850E94E319882325
:1037600071F2EE2061F280917902803208F4B8CFD4
:1037700020917402309175023A8329831B82BD82A5
:10378000AC828E83CE010196A9CFE83CF10508F00A
:1037900041C0FE2CEE2009F4B2CF25132AC09413A9
:1037A00028C08091790280FD1BC0982F907FC1F0C6
:1037B000F8018583903F31F0982F907F905F8F7054
:1037C000892B8583C8010E94861986E0F801A4E749
:1037D000B2E001900D928A95E1F70E94271AF7CE88
:1037E00086E0F801A4E7B2E001900D928A95E1F736
:1037F000EECE4D875E878D859E850E94E3198111EF
:103800006FCF80917902816080937902C8010E9414
:103810008619DDCE7A2DB98AA88A6E2D89890E94F3
:10382000E71986E0F60111928A95E9F7D6CFEE20E6
:1038300009F465CF4D875E878D859E850E94E319CB
:10384000F82E882309F45BCF86E0F801A4E7B2E004
:1038500001900D928A95E1F784E792E00E9462164A
:103860000E94351ABACF81E08E25CBCE88EC90E04D
:1038700008951F93CF93DF93CDB7DEB72C970FB684
:10388000F894DEBF0FBECDBF4F83588769877A8714
:103890008B879C87CE0107960E948B1A882369F03C
:1038A0008A859B85892B39F04F815885842F852304
:1038B0008F3F09F071C016E05FC086E0FE013796C9
:1038C000DE01119601900D928A95E1F78A859B851C
:1038D000892B89F388859F8189238F3F61F320910C
:1038E000430230E0C9010196877099274091420256
:1038F0004817190671F40E94C019109243021092E1
:10390000420286E0E4E7F2E0DF011D928A95E9F7E2
:10391000D2CF96E0929FD001939FB00D1124AC5B63
:10392000BD4FFE01319601900D929A95E1F780937B
:1039300043020E94061ABFCF819FC00111248C5BF5
:103940009D4F0E948B1A8823E9F0E09142021E9F4E
:10395000F0011124EC5BFD4F408151816281738144
:10396000848195810E94F6198091420290E001962F
:10397000877099278093420280914202909143027E
:103980008913DACF2C960FB6F894DEBF0FBECDBFE9
:10399000DF91CF911F91089569857A858B859C85EC
:1039A0000E94F61988CFEF92FF920F931F93CF9347
:1039B000DF938C01892B81F0F12CEE24E394E80154
:1039C0002196F8018491843770F4843008F05FC048
:1039D0008130B1F08230A1F1DF91CF911F910F9131
:1039E000FF90EF900895853709F44CC008F43DC06E
:1039F0009CE7980F903780F78F770E94F11649C0A7
:103A00000E5F1F4FFE01849190E2980F983060F492
:103A10008770FE2D01C0FF0F8A95EAF78F2F0E9455
:103A2000661F0E948F1F02C00E9467168F2D815053
:103A300030F2EFE9FFE03197F1F700C00000F7CF77
:103A40000E5F1F4FFE01849190E2980F983050F462
:103A50008770FE2D01C0FF0F8A95EAF78F2F0E9415
:103A60006C1FDFCF0E94F116E1CF0E5F1F4FFE01EA
:103A7000C491C150D8F28FE99FE00197F1F700C0DF
:103A80000000F7CF0E5F1F4FFE01F490CFCF0E94D2
:103A900067168E01CBCF08950C944B1D0E944C1DD0
:103AA00060938302709384028093850290938602D0
:103AB0000C94AE1908950C944E1D0F931F93009112
:103AC0008302109184022091850230918602602B3E
:103AD000712B822B932B1F910F910C944E1D0F93E2
:103AE0001F930091830210918402209185023091EE
:103AF000860260237123822393231F910F910C94DC
:103B00004E1D0F931F930091830210918402209108
:103B100085023091860260277127822793271F91A3
:103B20000F910C944E1D0C944B1D0C94931D0E94F0
:103B3000951D60937F027093800280938102909321
:103B400082020C94AE1960E070E0CB010C94971DDA
:103B50000F931F9341E050E060E070E08A019B0109
:103B600004C0000F111F221F331F8A95D2F7C9010D
:103B7000B8011F910F910C94971D0F931F9341E073
:103B800050E060E070E004C0440F551F661F771FCF
:103B90008A95D2F780917F0290918002A091810254
:103BA000B09182028A019B01082B192B2A2B3B2BF7
:103BB000C901B8011F910F910C94971D0F931F938A
:103BC00041E050E060E070E004C0440F551F661F04
:103BD000771F8A95D2F7CB01BA01609570958095D1
:103BE000909500917F021091800220918102309186
:103BF000820260237123822393231F910F910C94DF
:103C0000971D0F931F9341E050E060E070E004C007
:103C1000440F551F661F771F8A95D2F780917F0248
:103C200090918002A0918102B09182028A019B0151
:103C3000082719272A273B27C901B8011F910F918F
:103C40000C94971D0F931F9300917F021091800297
:103C50002091810230918202602B712B822B932B59
:103C60001F910F910C94971D0F931F9300917F024A
:103C70001091800220918102309182026023712391
:103C8000822393231F910F910C94971D0F931F93E1
:103C900000917F0210918002209181023091820276
:103CA00060277127822793271F910F910C94971DEE
:103CB0000895E92FEE0F9E0F890F982F977041E01E
:103CC00001C0440F9A95EAF786958695869595E00A
:103CD000899FF0011124E658FD4F30E020E070E0AC
:103CE0005191DF011197CB01022E02C09695879565
:103CF0000A94E2F7817081958527842385278C9328
:103D00002F5F3F4F2530310559F70895E92FEE0F0A
:103D10009E0F890F982F977086958695869525E03A
:103D2000829FF0011124E658FD4F50E040E080E012
:103D3000219130E0092E02C0369527950A94E2F7CA
:103D400021703327042E01C0220F0A94EAF7822B38
:103D50004F5F5F4F4530510559F70895BF92CF929D
:103D6000DF92EF92FF920F931F93CF93DF938C011B
:103D7000C0907F02D0908002E0908102F090820299
:103D80008091830290918402A0918502B091860275
:103D9000C82AD92AEA2AFB2ACFE1D0E0BC2ED701D3
:103DA000C6010C2E04C0B695A795979587950A94E1
:103DB000D2F780FD0EC0219788F7B12C8B2DDF91B3
:103DC000CF911F910F91FF90EF90DF90CF90BF9018
:103DD0000895B8018C2F0E94BD03019761F3EECFC7
:103DE000CF93DF93EC010E94AE1EBE01DF91CF9115
:103DF0000C94BD031F93CF93DF93EB01909141028D
:103E0000992331F0CB01DF91CF911F910C94F01EDB
:103E1000882379F0CB010E94AE1E182F682FCE01A7
:103E20000E94591EBE01812FDF91CF911F910C94EA
:103E3000BD03CB010E94861E182FF4CF682F8091FE
:103E40001701909118010C943421682F809117016B
:103E5000909118010C9436218091170190911801CE
:103E60000C943821809187028595859585950895D4
:103E7000809187028770089590918702977081E002
:103E800009F480E00895809193020895909193023F
:103E9000892B8093930208958095909193029823A3
:103EA0009093930208951092930208959091920234
:103EB000892B809392020895809590919202982385
:103EC0009093920208951092920208959091910217
:103ED000892B809391020895809590919102982367
:103EE0009093910208951092910208958091880212
:103EF000089508950C94791F90918802981721F0E5
:103F0000809388020C947A1F0895809188028823F8
:103F100029F01092880280E00C947A1F0895E091B5
:103F20001701F0911801809193028083E0911701AD
:103F3000F0911801808190919202892B8083E09109
:103F40001701F0911801808190919102892B808353
:103F500090918802992381F0E0911701F091180166
:103F60008081892B808380911701909118010E9494
:103F7000EC2081110E94851F8091170190911801FA
:103F80000C943C1508950C94C21F98E0899F9001F1
:103F90001124622B609387020E94BD1D80918702CD
:103FA0008595859585950C94C31F1092870280E0B6
:103FB0000C94C31F90918702809589238093870278
:103FC000282F277071F4282F082E000C330B92171E
:103FD000130639F08595859585950E94DE1D0C9414
:103FE000D51F0895CF92DF92EF92FF926C01EE24DD
:103FF000FF2420E0C114D104E104F10419F0C70149
:10400000B60120E1C72ED82EE92EFF24C114D10419
:10401000E104F10419F0285FC701B6016B017C01CE
:1040200054E0F694E794D794C7945A95D1F7C11405
:10403000D104E104F10419F02C5FC701B6016B0152
:104040007C0142E0F694E794D794C7944A95D1F75F
:10405000C114D104E104F10419F02E5FC701B601C7
:104060009695879577956795672B682B692B09F04F
:104070002F5F822FFF90EF90DF90CF90089590E018
:1040800080E00E94212A21E08C3E9E4F09F020E032
:10409000822F089582E090E00C94132A83E090E050
:1040A0000C94132ACF9384E090E00E94132AC82F27
:1040B00081E290E00E94132A982F8C2FCF910895CF
:1040C000CF93C92F682F84E090E00E94272A6C2F9D
:1040D00081E290E0CF910C94272A86E090E00C9446
:1040E000132A682F86E090E00C94272AAB01BC01CC
:1040F0008FE090E00C94392AAB01BC0183E190E0A1
:104100000C94392A60E070E0CB010C947C2060E0D4
:1041100070E0CB010E9476200C9482206CEE7EEF42
:1041200090E080E00E94452A60E082E090E00E94FA
:10413000272A60E083E090E00E94272A1092830201
:1041400010928402109285021092860260E084E050
:1041500090E00E94272A60E081E290E00E94272AF6
:1041600060E085E090E00E94272A60E086E090E031
:104170000E94272A6FEF87E090E00E94272A40E004
:1041800050E0BA0188E090E00E94392A60E08DE0BA
:1041900090E00E94272A40E050E0BA0188E190E0D8
:1041A0000E94392A60E087E190E00E94272A40E0DF
:1041B00050E0BA018CE190E00E94392A60E080E290
:1041C00090E00E94272A0C9487200C948E20682F60
:1041D0008EE090E00C94272A9C012E5F3F4FAC01AB
:1041E000485F5F4F80E02417350709F40895F9010F
:1041F00091919F019923B9F38F5FF5CF662349F021
:10420000FC01329608962191261729F0E817F90744
:10421000D1F780E0089581E008959C01FC01329679
:104220009FEF80E04191461751F09F3F19F44111F3
:1042300001C0982F8F5F8630A9F79F3F09F408953A
:10424000290F311D97FD3A95F90162830895FC010C
:10425000329608962191261303C0DF0111971C9214
:10426000E817F907B9F708950C940D210C9427214C
:10427000029626E0FC0111922A95E9F70895089527
:1042800008950C9440210E9441218091D7028430EE
:1042900009F43CC01092950288E190E020E40FB64A
:1042A000F894A895809360000FBE2093600080E092
:1042B0000E94FE0E80E00E9428030E94C80C80919C
:1042C000960281110AC081E0809396028091A60235
:1042D0008170809397020E94FB0B0E94412183B75B
:1042E000817F846083BF83B7816083BF7894889522
:1042F00083B78E7F83BF0FB6F894A8958091600036
:10430000886180936000109260000FBE0895089548
:104310000E943F210E94E9050E94872180E00E94BF
:10432000A80591E0811107C081E00E94A80591E0F5
:10433000811101C090E0892F089508950C949D216A
:104340000E94C0190E94000E0E9430150E9428038E
:10435000109296028091970281110E94C00C0E94D7
:104360000D0C0C949E211F921FB61F9211248F9347
:104370009F93AF93BF9380919502811113C0809159
:10438000CD029091CE02A091CF02B091D002419681
:10439000A11DB11D8093CD029093CE02A093CF02B8
:1043A000B093D002BF91AF919F918F911F901FBE8C
:1043B0001F90189582E084BD93E095BD9AEF97BD5C
:1043C00080936E0008952FB7F8948091CD0290915C
:1043D000CE02A091CF02B091D0022FBF08959C01D0
:1043E0004FB7F8948091CD029091CE02A091CF0268
:1043F000B091D0024FBF821B930B089578941F9207
:104400001FB61F9211248F939F93AF93BF938091F8
:10441000CD029091CE02A091CF02B091D002019630
:10442000A11DB11D8093CD029093CE02A093CF0227
:10443000B093D002BF91AF919F918F911F901FBEFB
:104440001F90189587E797E79093010880930008DD
:1044500088E19AE00FB6F894A895809360000FBEAB
:1044600090936000FFCF0E943F20811102C00E9404
:10447000E5200E944A20809394020E94522090934B
:10448000D2028093D1020E944E20682F70E090E00B
:1044900080E00E945B1D60917F027091800280919C
:1044A0008102909182020C94951D8091A002089542
:1044B0000895CF93DF9300D00F92CDB7DEB79091E0
:1044C000D702943019F589837B836A8382E08093D5
:1044D000E9008FEF9091E800815095FD06C095EDC1
:1044E0009A95F1F700008111F5CF8091E80085FFE2
:1044F0000DC050E040E063E070E0CE0101960E9404
:104500004C248091E8008E778093E8000F900F9004
:104510000F90DF91CF910895BC0184E00C94592253
:10452000BC0183E00C945922CF93DF93EC0181E02E
:104530008093E9008FEF9091E800815095FD06C0CF
:1045400095ED9A95F1F700008111F5CF8091E80083
:1045500085FF14C050E040E068E070E0CE010E94AA
:104560004C248091E8008E778093E80088E0FE017B
:10457000A8E9B2E001900D928A95E1F7DF91CF9121
:1045800008958091D602811109C00E94DC250E9405
:1045900039268091E20084608093E20008951092B1
:1045A000D6020895089508950C94A02142E061EC8C
:1045B00081E00E94582542E261EC82E00C9458258B
:1045C0008091D902833009F45FC030F48130C1F1A9
:1045D000823009F49BC008958A3009F487C08B307B
:1045E00009F46DC0893009F04EC08091D802813243
:1045F00009F049C08091DC029091DD02029708F039
:1046000042C08091E800877F8093E8008091E800B5
:1046100082FF35C09091F3008091F200029729F457
:104620008091F1008B7F813021F48091F1008093A3
:10463000A0028091E8008B778093E8000C948C2591
:104640008091D802813AF9F48091E800877F8093C5
:10465000E8008091DC029091DD02892B61F468E032
:1046600088E992E070E00E949B248091E8008B77BB
:104670008093E800089560E090E080E0F3CF8091BF
:10468000D7028111C3CF08958091D802813AD9F71A
:104690008091DC029091DD02892BA9F78091E800DE
:1046A000877F8093E8008091E80080FFFCCF8091B5
:1046B00023018093F1008091E8008E77BDCF809137
:1046C000D802813201F78091DC029091DD02892BC2
:1046D000D1F68091E800877F8093E8000E948C25C6
:1046E0008091DA02809323010C94C0198091D80242
:1046F000813249F68091E800877F8093E8000E942C
:104700008C258091DB028093A10208958091D802CC
:10471000813A09F0B8CF8091E800877F8093E80064
:104720008091E80080FFFCCF8091A102C2CF84B7C6
:10473000877F84BF0FB6F894A89580916000886148
:1047400080936000109260000FBE80E890E00FB68A
:10475000F89480936100909361000FBE0E948115D0
:104760000E94DC250E9439268091E20084608093BB
:10477000E20078940E94C2280E948B1589E191E0A2
:104780000E942B158091D702853019F00E9499154F
:10479000F9CF0E9443218091D502882399F30E948A
:1047A0008821882379F30E943624ECCF0C94D823F7
:1047B000292F33272330310519F168F421303105D1
:1047C00009F44AC02230310509F44BC090E080E082
:1047D00030E020E028C02132310579F12232310564
:1047E000A9F780E490E02FE933E061157105D9F075
:1047F00082E390E02DE633E061307105A1F0E6CF71
:1048000099278130910599F0009741F08230910508
:1048100089F00397D9F6E6EFF2E002C0ECE1F3E0AD
:10482000849190E09F01FA01318320830895EAE0AA
:10483000F3E0F6CFECEFF2E0F3CF89E090E022E393
:1048400033E06115710579F389E090E02BE433E002
:104850006130710541F3BACF82E190E02BE533E09E
:10486000E2CF8BE390E020E233E0DDCF80E189BD51
:1048700082E189BD09B400FEFDCF8091D8008F7D13
:104880008093D8008091E00082608093E000809166
:10489000E00081FDFCCF0895AF92BF92CF92DF92EE
:1048A000FF920F931F93CF93DF936C01EB018A016B
:1048B0000E94AB25F82E811123C00115110539F096
:1048C000F80180819181C81BD90BC80ED91EB12C6B
:1048D000A12C2097A9F08091E80085FD22C080914D
:1048E000E8008E778093E80001151105A1F0F8012A
:1048F00080819181A80EB91EB182A08285E0F82E38
:104900008F2DDF91CF911F910F91FF90DF90CF906E
:10491000BF90AF9008950E94AB258823D1F2F82E66
:10492000EFCFF60181916F018093F1002197FFEFA6
:10493000AF1ABF0ACECFFC018091DE029091DF0258
:1049400086179707A0F06115710529F49091E8008A
:104950009E779093E80090E06115710551F49111F4
:1049600008C08091E80082FF34C080E00895BC0157
:10497000F2CF8091D7028823C1F18530C1F18091B7
:10498000E80083FD30C08091E80082FDEACF80918D
:10499000E80080FFE1CF8091F3002091F200382FF2
:1049A0006115710519F02830310558F091E0283073
:1049B000310509F090E02091E8002E772093E8007F
:1049C000CBCF81918093F100615071092F5F3F4FF0
:1049D000E7CF8091D702882341F0853041F0809164
:1049E000E80083FFBECF81E0089582E0089583E070
:1049F0000895FC018091DE029091DF0286179707EF
:104A0000A0F06115710529F48091E8008E778093FC
:104A1000E80090E06115710551F4911108C0809192
:104A2000E80082FF35C080E00895BC01F2CF80919C
:104A3000D7028823C9F18530C9F18091E80083FD50
:104A400031C08091E80082FDEACF8091E80080FFCC
:104A5000E1CF8091F3002091F200382F61157105AC
:104A600019F02830310558F091E02830310509F06F
:104A700090E08091E8008E778093E800CBCF84911E
:104A80008093F1003196615071092F5F3F4FE6CF5F
:104A90008091D702882341F0853041F08091E80071
:104AA00083FFBDCF81E0089582E0089583E00895FB
:104AB000982F973028F08F708093E90081E0089557
:104AC0009093E900242F762F50E0981731F07091E1
:104AD000EC002091ED005091F00021FD02C09F5F9D
:104AE000E8CF3091EB003E7F3093EB003091ED004A
:104AF0003D7F3093ED003091EB0031603093EB005F
:104B00007093EC002093ED005093F0002091EE00A4
:104B100027FDE5CF80E008958091D80287FF13C07C
:104B20008091E80082FF06C08091E8008B77809337
:104B3000E80004C08091D7028111F2CF08958091DE
:104B4000D7028823D9F38091E80080FFF8CF8091C5
:104B5000E8008E77ECCF2091E4003091E50095E6F7
:104B6000A9012091EC00822F817020FF06C0809166
:104B7000E80080FF06C080E008952091E80022FD53
:104B80001AC08091D702882389F0853089F08091FE
:104B9000EB0085FD0FC02091E4003091E500421745
:104BA0005307F9F29150E1F684E0089582E0089508
:104BB00083E0089581E008950E944A260E945226CB
:104BC000E0EEF0E0808181608083E8EDF0E08081BC
:104BD0008F77808319BCA7EDB0E08C918E7F8C938A
:104BE00080818F7E80831092D60208950F931F9349
:104BF000CF93DF930E944A260E945226C8EDD0E050
:104C000088818F77888388818068888388818F7D79
:104C1000888319BC1092D7021092D3021092D50249
:104C20001092D40200EE10E0F80180818B7F808327
:104C300088818160888342E060E080E00E9458259E
:104C4000E1EEF0E080818E7F8083E2EEF0E0808113
:104C500081608083808188608083F80180818E7F7D
:104C60008083888180618883DF91CF911F910F912C
:104C70000895E8EDF0E080818F7E8083E7EDF0E03D
:104C800080818160808384E082BF81E08093D6024E
:104C90000C94F625E8EDF0E080818E7F8083109201
:104CA000E20008951092DA001092E10008951F9238
:104CB0000F920FB60F9211242F933F934F935F9350
:104CC0006F937F938F939F93AF93BF93EF93FF93D4
:104CD0008091E10082FF0BC08091E20082FF07C05B
:104CE0008091E1008B7F8093E1000E94C128809138
:104CF000DA0080FF19C08091D80080FF15C0809134
:104D0000DA008E7F8093DA008091D90080FF96C010
:104D100080E189BD82E189BD09B400FEFDCF81E05B
:104D20008093D7020E94C1228091E10080FF19C0C8
:104D30008091E20080FF15C08091E2008E7F809319
:104D4000E2008091E20080618093E2008091D800CF
:104D500080628093D80019BC85E08093D7020E94BE
:104D6000D3228091E10084FF2BC08091E20084FF78
:104D700027C080E189BD82E189BD89B5982F9170F6
:104D800080FFFBCF8091D8008F7D8093D8008091E9
:104D9000E1008F7E8093E1008091E2008F7E80931E
:104DA000E2008091E20081608093E2008091D30272
:104DB000882309F449C084E08093D7020E94D4225A
:104DC0008091E10083FF29C08091E20083FF25C02C
:104DD0008091E100877F8093E10082E08093D70299
:104DE0001092D3028091E1008E7F8093E100809148
:104DF000E2008E7F8093E2008091E20080618093E8
:104E0000E20042E060E080E00E9458258091F000DE
:104E100088608093F0000E94D222FF91EF91BF91B1
:104E2000AF919F918F917F916F915F914F913F9142
:104E30002F910F900FBE0F901F90189519BC1092D4
:104E4000D7020E94CF2270CF8091E30087FD93E0CC
:104E50009093D702B3CF1F920F920FB60F921124E7
:104E60002F933F934F935F936F937F938F939F9372
:104E7000AF93BF93CF93DF93EF93FF93D091E9006C
:104E8000DF708091EC00C82FC17080FDC0E81092E7
:104E9000E9008091F000877F8093F00078940E9471
:104EA0006F271092E9008091F00088608093F000F5
:104EB000CD2BCF70C093E900FF91EF91DF91CF919F
:104EC000BF91AF919F918F917F916F915F914F9122
:104ED0003F912F910F900FBE0F901F9018951F9329
:104EE000CF93DF93CDB7DEB7AA970FB6F894DEBFA6
:104EF0000FBECDBF88ED92E02091F100FC0121931F
:104F0000CF01F2E0803E9F07B9F70E94E022809136
:104F1000E80083FF1EC18091D8029091D9029A3097
:104F200008F017C1E92FF0E0E255F54D0C94512936
:104F3000803899F0823809F00CC18091DC028F70C2
:104F4000873008F006C18093E9008091EB0085FB73
:104F5000882780F91092E90006C08091D4029091D0
:104F6000D502911182609091E800977F9093E800BC
:104F70008093F1001092F1008091E8008E77E5C0F7
:104F8000882309F4D3C0823009F0E3C08091DA02AB
:104F90008111D6C08091DC028F702FEF280F263050
:104FA00008F0D7C08093E9002091EB0020FFC8C033
:104FB000933031F48091EB0080628093EB00C0C0AD
:104FC0009091EB0090619093EB0021E030E001C004
:104FD000220F8A95EAF72093EA001092EA00809166
:104FE000EB008860EACF8111B4C01091DA021F771C
:104FF0008091E3008078812B8093E3008091E8002A
:10500000877F8093E8000E948C258091E80080FFD4
:10501000FCCF8091E30080688093E30082E011116F
:1050200083E08093D70295C08058823008F091C009
:105030008091DA029091DB028C3D23E09207A1F58A
:1050400083E08A838AE289834FB7F894DE0113965E
:1050500020E03EE051E2E32FF0E050935700E4916E
:1050600020FF03C0E295EF703F5FEF708E2F90E05E
:10507000EA30C0F0C7968D939D932F5F243159F786
:105080004FBF8091E800877F8093E8006AE270E07C
:10509000CE0101960E949B248091E8008B7780933B
:1050A000E80057C0C096E7CF6091DC027091DD0246
:1050B000AE014F5F5F4F0E94D623BC01892B09F4DC
:1050C00048C09091E800977F9093E80089819A8189
:1050D0000E94F924E1CF8038E1F58091E800877FD4
:1050E0008093E8008091D3028093F10045CF811135
:1050F00030C09091DA02923060F58091E800877FAD
:105100008093E8009093D3020E948C258091D30273
:10511000882311F084E005C08091E30087FDFACF79
:1051200081E08093D7020E94D62213C08091DA02D8
:10513000813079F481E0933009F080E08093D502EA
:105140001092E9008091E800877F8093E8000E9438
:105150008C258091E80083FF0AC08091E800877F5A
:105160008093E8008091EB0080628093EB00AA9628
:105170000FB6F894DEBF0FBECDBFDF91CF911F9168
:1051800008950895CF938091D7028823A1F0C0910C
:10519000E900CF709091EC00892F817090FD80E83C
:1051A000C82B1092E9008091E80083FD0E946F27D0
:1051B000CF70C093E900CF910895DB018F939F9347
:1051C0000E947529BF91AF91A29F800D911DA39F51
:1051D000900DB29F900D11240895991B79E004C0A1
:1051E000991F961708F0961B881F7A95C9F7809526
:1051F000089587FB082E062687FD819567FD61953A
:105200000E94ED280EF4919507FC81950895AA1B44
:10521000BB1B51E107C0AA1FBB1FA617B70710F0A1
:10522000A61BB70B881F991F5A95A9F780959095D3
:10523000BC01CD01089597FB072E16F4009407D00A
:1052400077FD09D00E94072907FC05D03EF4909510
:1052500081959F4F0895709561957F4F0895A1E2C4
:105260001A2EAA1BBB1BFD010DC0AA1FBB1FEE1FE0
:10527000FF1FA217B307E407F50720F0A21BB30B2B
:10528000E40BF50B661F771F881F991F1A9469F7A7
:1052900060957095809590959B01AC01BD01CF0103
:1052A0000895EE0FFF1F0590F491E02D09940E94E0
:1052B0005F29332312F48A1B9B0B0C947029A29F45
:1052C000B001B39FC001A39F700D811D1124911DDA
:1052D000B29F700D811D1124911D08950E945F29B8
:1052E000B7FF0895821B930B08950E945F29A59F25
:1052F000900DB49F900DA49F800D911D11240895D1
:10530000B7FF0C9475290E947529821B930B089591
:10531000002E083090F0982F872F762F652F542F6E
:10532000432F322F22270850F4CF220F331F441F60
:10533000551F661F771F881F991F0A95B2F7002D0A
:1053400008952A153B054C055D056E057F05800710
:10535000910708958F929F92AF92BF92CF92DF9262
:10536000EF92FF92CF93DF93EC01688179818A817C
:105370009B81611571058105910521F464E279ED48
:105380008BE597E02DE133EF41E050E00E945B2A8E
:1053900049015A019B01AC01A7EAB1E40E947529B9
:1053A0006B017C01ACEEB4EFA50194010E9483294E
:1053B000DC01CB018C0D9D1DAE1DBF1DB7FF03C0D1
:1053C0000197A109B04888839983AA83BB839F77FB
:1053D000DF91CF91FF90EF90DF90CF90BF90AF9093
:1053E0009F908F9008950E94AA29089580E091E0EF
:1053F0000E94AA290895B0E0A0E080930001909354
:105400000101A0930201B09303010895FC014150F2
:10541000504030F001900616D1F73197CF01089532
:10542000882799270895F999FECF92BD81BDF89AF2
:10543000992780B50895A6E1B0E044E050E00C94CF
:105440004D2AA8E1B0E042E050E00C944D2A262F0E
:10545000F999FECF92BD81BDF89A019700B402166A
:1054600039F01FBA20BD0FB6F894FA9AF99A0FBE18
:1054700008950396272F0E94282A0E94272A252F65
:105480000E94282A242F0C94282A0196272F0E9454
:10549000282A0C94272ADC01CB01FC01F999FECFC4
:1054A00006C0F2BDE1BDF89A319600B40D924150AC
:1054B0005040B8F70895052E97FB1EF400940E9403
:1054C000722A57FD07D00E942F2907FC03D04EF403
:1054D0000C94722A50954095309521953F4F4F4F2F
:1054E0005F4F089590958095709561957F4F8F4F90
:1054F0009F4F0895F894FFCFA60DAE0DB50DBA0DD0
:10550000BF0DC40DC90DCE0DD30DD80DDD0DE20DAF
:10551000E60DEB0DEE0DF10DF40DF70DF90DFC0D93
:1055200098179817F017F0174218C517C517C51721
:105530005E18EA18F918F9185519C517C5175E1934
:10554000CF19CF19D819D819DA19D819D819D819E3
:10555000CF19CF19DF19D819D819DF199827C02703
:10556000A928C027A928F3271428A9286B28772859
:1055700001000000010102000B000B0B01191A1BB6
:105580001C1D1E1F20212289025522942258229080
:10559000228C2201E200E900EA00B500B600B70063
:1055A000CD008301CC008A019201940121022302E3
:1055B00024022502260227022A02B300B4006F004B
:1055C00070008182839294F49731330001020202C9
:1055D000020606060909090909090F0F0F0F0F0F27
:1055E0001515151819191919191919191919232423
:1055F00025252525252500FF0100010000FFFF00CE
:1056000000010001FF00E200E900EA00B500B60079
:10561000B700CD008301CC008A01920194012102E0
:10562000230224022502260227022A02B300B40024
:085630006F007000818283000D
:00000001FF
