:100000000C940C020C9453020C9453020C94530263
:100010000C9453020C9453020C9453020C9453020C
:100020000C9453020C9453020C94C4270C949628FD
:100030000C94B1220C9453020C9453020C9453026E
:100040000C9453020C9453020C9453020C945302DC
:100050000C9453020C9419230C9453020C945302E5
:100060000C9453020C9453020C9453020C945302BC
:100070000C9453020C9453020C9453020C945302AC
:100080000C9453020C9453020C9453020C9453029C
:100090000C9453020C9453020C9453020C9453028C
:1000A0000C9453020C9453020C945302721872185D
:1000B000A418A418F118471A471A471A0F19A419B7
:1000C000B519B519161A1F1A471A401AC91AC91AAA
:1000D000DB1ADB1AD21ADB1ADB1ADB1AC91AC91AA5
:1000E000D71ADB1ADB1AD71A03292A29222A2A2926
:1000F000222A76299929222AF029FF290151B300C1
:10010000A800AC00AE00AB000100C95CA800C35C55
:10011000CA5CC55C00047F3F1F64321464321478EB
:100120003C1E1E140A052223252628292A2C2D2FA1
:100130003032333536383A3B3D3E404243454749FD
:100140004A4C4E5051535557595A5C5E6062646632
:1001500068696B6D6F71737577797B7D7F8183853E
:1001600087898A8C8E90929496989A9C9E9FA1A340
:10017000A5A7A8AAACAEAFB1B3B4B6B8B9BBBCBE64
:10018000BFC1C2C3C5C6C7C9CACBCCCDCED0D1D2E0
:10019000D2D3D4D5D6D7D7D8D9D9DADADBDBDBDCE2
:1001A000DCDCDCDCDDDDDDDDDCDCDCDCDCDBDBDB8E
:1001B000DADAD9D9D8D7D7D6D5D4D3D2D2D1D0CEEE
:1001C000CDCCCBCAC9C7C6C5C3C2C1BFBEBCBBB9F3
:1001D000B8B6B4B3B1AFAEACAAA8A7A5A3A19F9E71
:1001E0009C9A98969492908E8C8A89878583817F39
:1001F0007D7B79777573716F6D6B6968666462601A
:100200005E5C5A5957555351504E4C4A49474543E5
:1002100042403E3D3B3A3836353332302F2D2C2A82
:10022000292826252322FFAA7F554000010101012C
:1002300001010101010202020202020202020303A1
:100240000303030303030404040404040405050571
:100250000505060606060607070707070808080833
:10026000090909090A0A0A0B0B0B0C0C0C0D0D0DE0
:100270000E0E0E0F0F0F1010111111121213131476
:1002800014151516161717181819191A1A1B1B1CEE
:100290001D1D1E1E1F202021222223242425262648
:1002A000272829292A2B2C2D2D2E2F30313232337D
:1002B0003435363738393A3B3C3D3E3F4041424386
:1002C0004445464748494A4C4D4E4F50515354556A
:1002D0005658595A5B5D5E5F616264656668696B1A
:1002E0006C6D6F7072737577787A7B7D7E80828398
:1002F0008587888A8C8E8F91939596989A9C9EA0DC
:10030000A2A3A5A7A9ABADAFB1B3B5B7BABCBEC0E8
:10031000C2C4C6C9CBCDCFD1D4D6D8DBDDDFE2E4B1
:10032000E7E9EBEEF0F3F5F8FAFDFF040330000027
:10033000000C03420065006E0074006F00000010A6
:10034000036E0067007500790065006400740000AA
:10035000000403090409023B00020100A0FA090499
:1003600000000103010100092111010001224000E8
:100370000705810308000A090401000103000000C9
:100380000921110100012236000705820320000A1D
:10039000120110010000000810CB3311000101020E
:1003A000030105010980A10185031A81002A830048
:1003B000160100260300950175108100C0050C0987
:1003C00001A10185041A01002A9C02160100269C45
:1003D00002950175108100C005010906A1010507FC
:1003E00019E029E71500250195087501810295019D
:1003F000750881010507190029FF150026FF0095E2
:1004000006750881000508190129059505750191F2
:1004100002950175039101C011241FBECFEFDAE0F0
:10042000DEBFCDBF04B603FE27C080913902909194
:100430003A02A0913B02B0913C028730904BA7401A
:10044000B04BD1F41092390210923A0210923B0252
:1004500010923C0214BE84B7877F84BF0FB6F89415
:10046000A895809160008861809360001092600080
:100470000FBEE0E0F8E3099511E0A0E0B1E0E6ECA2
:10048000F6E502C005900D92A835B107D9F722E034
:10049000A8E5B1E001C01D92A933B207E1F70E94BF
:1004A000EC240C94612B0C940000811106C066238F
:1004B00011F089EA09C08AEA07C0813039F466235D
:1004C00011F08BE401C08EE40C941F18089581E0B4
:1004D000089581E008950C9469021F93CF93DF93F0
:1004E00000D000D01F92CDB7DEB749835A836B830B
:1004F00020919D0189819A81211112C0662349F0C2
:100500000E941920182F682F89819A810E94C21F8A
:1005100003C00E94ED1F182F69817A81812F04C0CA
:100520000E94192069817A810F900F900F900F908F
:100530000F90DF91CF911F910C94B205FC01408187
:1005400051816281738184810C946D020E944B21E0
:10055000811102C00E94F4210E944C140E94601478
:100560000C9499080E944B140E9470140C949B08E0
:1005700008950C94B8020C94B90208950E94B71A19
:100580000E94BD022FEF84E39CE021508040904008
:10059000E1F700C0000087E797E790930108809398
:1005A00000080C943F230F931F93CF93DF9300D049
:1005B000CDB7DEB78C010E949E029A838983B80171
:1005C000CE0101960E946F0F882309F4BFC2B801C3
:1005D00089819A810E946B02882309F4B7C2B8010D
:1005E00089819A810E942115882309F4AFC28981EB
:1005F0009A818B3CFCE59F0741F4F80182818823B6
:1006000009F4A4C20E94480AA1C28C3C2CE59207BE
:1006100008F0D6C1833C3CE5930761F4F801828180
:10062000882309F493C20E949A208272F1F00E94FA
:10063000450E8CC2843CECE59E07D0F0F801228187
:10064000873CFCE59F0709F490C108F0A0C1853CF8
:10065000ECE59E0709F48FC108F093C1222309F449
:1006600075C20E949A20827211F30E94380E6EC2E7
:100670008631FCE59F0708F041C182302CE59207E6
:1006800008F41BC1F8018281882309F41DC10E946E
:100690004B21811102C00E94F4210E945E2190939F
:1006A0002B0280932A0289819A818031FCE59F0781
:1006B00009F4C3C008F041C088303CE5930709F451
:1006C0009AC0F0F48430FCE59F0709F487C068F411
:1006D00082303CE5930709F477C083309C4509F0EC
:1006E000E3C080912A02826076C08630FCE59F07D5
:1006F00009F46EC008F07BC080912A0288606BC04C
:100700008C303CE5930709F485C068F48A30FCE539
:100710009F0709F474C008F079C00E94B71A80914D
:100720002A02806858C08E303CE5930709F476C0F1
:1007300008F07FC080912A028BC08C3FFCE59F07A8
:1007400009F44FC018F583313CE5930709F47DC0E7
:1007500078F48131FCE59F0709F473C082319C4530
:1007600009F0A2C00E94B71A80912A028F7733C085
:1007700085313CE5930709F472C008F486C08B3FCD
:100780009C4509F091C080912B023EC081152DE55A
:10079000920709F45FC058F48E3FECE59E0709F418
:1007A00044C008F43FC080912B0282602DC082308B
:1007B0002DE5920709F475C008F45DC083309D45AE
:1007C00009F072C080E06EC080912A02816003C08F
:1007D00080912A02806180932A0266C080912A0259
:1007E00011C080912B02826080932B025DC08091AA
:1007F0002A028062F0CF80912A028064ECCF80913F
:100800002A0288608460E7CF8160EECF80912A025F
:100810008E7FE1CF80912A028D7FDDCF80912A02E9
:10082000877FD9CF80912B0218C080912B028D7FBA
:10083000DBCF80912A028F7ECECF80912A028F7DDE
:10084000CACF80912A028F7BC6CF80912A02877FF0
:100850008B7FC1CF80912B028D7F8E7FC5CF809102
:100860002A0282FB222720F991E0922790FB82F94D
:1008700090FB83F9B0CF80912B02982F90959170C7
:100880008E7F892B90FB81F9AFCF0E94B71A8091A0
:100890002A0287FB222720F991E0922790FB87F913
:1008A0009ACF81E00E94F62180912A0290912B023A
:1008B0000E946F210E94B71A49C181153CE5930738
:1008C00039F081309C4561F0C8010E9467023FC148
:1008D000F8018281882309F439C10E94BE0236C121
:1008E000F8018281882309F431C18091F001982FA9
:1008F000909590FB80F98093F00128C18631FCE54A
:100900009F0739F50E949A20982FF8018281209143
:10091000100130911101882379F09A7A81E009F46D
:1009200080E080935801911102C069E201C065E343
:10093000C9010E942E220AC080915801811102C073
:1009400069E201C065E3C9010E9430220E94E820EB
:10095000FDC0823C9C4509F0B7CFF8018281882315
:1009600009F4F4C00E94530EF1C0222309F4EEC032
:100970000E94DF0BEBC0222309F4E8C00E94C30BE6
:10098000E5C0222309F4E2C00E94D00BDFC0893CFD
:100990003CE5930731F4222309F4D8C00E94FD0BF3
:1009A000D5C08A3C9C4530F4222309F4CFC00E9474
:1009B000EE0BCCC0222309F4C9C00E940C0CC6C0A7
:1009C000833DFCE59F0739F4F8018281882309F40F
:1009D000BDC088E114C0843D2CE5920708F068C0D2
:1009E000F80122818F3CFCE59F0761F080F58D3C8A
:1009F000ECE59E07A9F4222309F4A8C081E00E9437
:100A0000480EA4C0222309F4A1C00E94400A8630E7
:100A100028F00E94400A883008F427CE86E0EFCF05
:100A20008E3C9C4530F4222309F490C00E94590A60
:100A30008DC0222309F48AC00E94400A823028F027
:100A40000E94400A853008F410CE82E0D8CF813D64
:100A50003CE5930771F4222309F478C00E94400A10
:100A60008F3028F00E94400A843108F4FECD8FE0D8
:100A7000C6CF823D9C4570F4222309F467C00E94D2
:100A8000400A893028F00E94400A8E3008F4EDCDEB
:100A900089E0B5CF222309F459C00E94400A85316C
:100AA00028F00E94400A873108F4DFCD85E1A7CF06
:100AB0008D3DFCE59F0749F4F8018281882309F404
:100AC00045C082E00E948B2541C08E3D2CE59207F7
:100AD00038F5853D3CE5930731F4F80182818823A0
:100AE000A9F183E28CCF853DECE59E0778F4F8010F
:100AF0008281882359F10E94400A893128F00E949E
:100B0000400A823208F4B1CD89E179CF8C3D9C4511
:100B100009F0DACEF80182818823C1F080E0D2CFDB
:100B20008F3D2CE5920739F4F8018281882371F01A
:100B30000E94F4210BC08F3D3CE5930708F4C4CE1E
:100B40008B5F9C45099708F49DCDBECE80E00F9049
:100B50000F90DF91CF911F910F91089580E090E069
:100B600008950895272F30E0F901EE0FFF1F2E0F93
:100B70003F1FF90196E0899FE00DF11D1124E60F5A
:100B8000F11DEE0FFF1FE450FF4F859194910895E2
:100B9000880F991FFC01EC5EFE4F8591949108959A
:100BA000CF93DF930E94B2050E94BF07EC0181152D
:100BB00021E5920708F042C0811540E5940708F04E
:100BC0002DC1883E910500F5803E910508F0D3C106
:100BD000883A910570F4853A910508F0A2C08130F9
:100BE000910509F4C8C108F479C1049708F0C3C19C
:100BF00075C18F3B910508F49FC0803C910508F4B6
:100C00006DC1805C9109F9C0C11580E3D80780F4FB
:100C1000C11520E2D20708F0EEC0C03FD10508F4AC
:100C20005DC1CF3FD10511F008F0A5C1D065A3C1CA
:100C3000C11540E4D40708F0EEC0E3C0C11589E552
:100C4000D80760F5C11528E5D20708F033C1C115F2
:100C500044E5D40778F4C11583E5D80708F00FC13F
:100C6000C11522E5D20708F0F4C0DC2FCC27C16FF4
:100C7000D06A81C1C11545E5D40708F416C1C11574
:100C800086E5D80708F02AC18C2F0E9453088F717F
:100C9000C82FD0E0DC2FCC27D0626DC1CD3B2CE536
:100CA000D20709F412C1E0F4CB3B8CE5D80709F474
:100CB00006C108F007C1C1154AE5D40708F00EC106
:100CC0008C2F8F700E94530894E0D695C7959A9503
:100CD000E1F7CF70D0E0DC2FCC27D069C82B4BC117
:100CE000C03C8CE5D80709F4F6C060F4CE3B4CE577
:100CF000D40709F4EDC0CF3BDC4509F0EFC0C0E0FC
:100D0000D2ED39C1CE0190568115904208F0E6C06F
:100D10008D2F8F710E945308DD27D0628F71D82BE1
:100D20002AC1853A910509F4DCC0863A910509F09B
:100D3000DBC0C2E8D0E41FC1883A910509F4D7C0EE
:100D4000893A910509F4D6C08A3A910509F4D5C0CB
:100D50008B3A910509F4D4C08C3A910509F4D3C0BB
:100D60008B3B910509F4D2C08C3B910509F4D1C0AD
:100D70008D3A910509F4D0C0803B910509F4CFC0AC
:100D80008E3A910509F4CEC08F3A910509F4CDC091
:100D9000813B910509F4CCC0823B910509F4CBC09D
:100DA000833B910509F4CAC0843B910509F4C9C08D
:100DB000853B910509F4C8C0863B910509F4C7C07D
:100DC000873B910509F4C6C0883B910509F4C5C06D
:100DD000893B910509F4C4C08D3B910509F4C3C05A
:100DE0008E3B910509F4C2C08A3B910509F4C1C04C
:100DF000C0E0D4E4C0C0CE019F700E94C805EC01E1
:100E0000BAC0CE019927D3FF03C0EC01D86CB3C0A0
:100E1000EC01D06CB0C0DF70D06AADC074E09695C4
:100E200087957A95E1F783709C2F937021E030E0ED
:100E300002C0220F331F9A95E2F73C68382BCF701F
:100E4000C695C69540E2C49FE0011124C22BD32B66
:100E500092C0CE018370992721E030E002C0220FBA
:100E6000331F8A95E2F78C2F8695869540E2849F02
:100E7000C0011124E901C82BD92BDC687CC0CE014C
:100E80008370992721E030E002C0220F331F8A953A
:100E9000E2F78C2F8695869540E2849FC00111244D
:100EA000E901C82BD92BDA6866C0DC2FCC27C46FC8
:100EB000D06A61C0DC2FCC27C06FD06A5CC0C0E0B4
:100EC000D4ED59C0C0E0D5ED56C0C0E0D1ED53C05F
:100ED000C0E0D0ED50C0C0E0D3ED4DC0C0E0D0E0E8
:100EE0004AC0C1E8D0E447C0C3E8D0E444C0C2EE81
:100EF000D4E441C0C9EED4E43EC0CAEED4E43BC061
:100F0000C5EBD4E438C0C6EBD4E435C0C3EBD4E4BD
:100F100032C0C4EBD4E42FC0C7EBD4E42CC0CCEC7B
:100F2000D4E429C0CDECD4E426C0C3E8D5E423C082
:100F3000CAE8D5E420C0C2E9D5E41DC0C4E9D5E4BF
:100F40001AC0C1E2D6E417C0C3E2D6E414C0C4E2BA
:100F5000D6E411C0C5E2D6E40EC0C6E2D6E40BC0AA
:100F6000C7E2D6E408C0CFE6D4E405C0C0E7D4E4C5
:100F700002C0CAE2D6E4CE01DF91CF910895823853
:100F8000910569F1B0F48133910509F46DC048F41D
:100F90008932910509F463C08A32910509F469C068
:100FA00008958533910509F455C089339105B9F049
:100FB0000895833E910569F138F4803E9105B1F0C2
:100FC000823E910509F10895863E9105A9F1873E7B
:100FD0009105B9F1843E910509F064C023C02091C8
:100FE0002A0220FD4FC021FD4DC0089580912A02A4
:100FF00080FD44C080912B0280FF44C080912A0272
:1010000084FD42C083EE4DC080912A0282FF38C029
:10101000F5CF80912A0282FD33C080912B0280FDA2
:1010200031C0ECCF80912B0281FF32C080912A0227
:1010300084FD2AC087EE35C080912A0283FF26C036
:10104000F5CF80912A0283FD21C080912B0281FD82
:101050001FC0ECCF80912A0285FD1CC01DC080916D
:101060002A0285FD19C016C080912A0286FD16C08D
:1010700017C080912A0286FD13C010C089E311C0F9
:1010800082EE0FC080EE0DC080E00BC086EE09C07E
:1010900084EE07C089E205C085E303C08AE201C08F
:1010A00081E390E0089590912A0292FF0DC0282FCD
:1010B0002871283019F4877F846006C0282F247196
:1010C000243011F48B7F886093FF0DC0282F287186
:1010D000283119F4877E846106C0282F24712431B9
:1010E00011F48B7E886120912B0220FF0DC0382FD8
:1010F0003871383019F4877F816006C0382F31711C
:10110000313011F48E7F886021FF0DC0282F2871A7
:10111000283119F4877E816106C0282F2171213181
:1011200011F48E7E886194FD877E089508950C9455
:1011300096080C9497080C949608E82FF0E0E75A6C
:10114000FE4F8081089508950F931F93CF93DF93EF
:101150002DE131E0A3E2B1E0C1E0D0E080E090E039
:10116000F901E80FF91F4081E42FE295EF70F0E0FC
:1011700061A14F708E0102C0000F111F4A95E2F766
:10118000A801502F5095562351A352A1452B42A39D
:1011900001968330910521F72D5F3F4FA217B307CA
:1011A000E9F610925B011092590110925C011092C5
:1011B0005A0182E00E943709DF91CF911F910F9170
:1011C0000C94A602EF92FF921F93CF93DF93EBE56F
:1011D000F1E04DE151E06DE571E0C0E0EE24E39413
:1011E000F12C1081108220E030E0CA01820F931FA1
:1011F000DC01DC918D2F82958F7090E0DC01909660
:101200008C9190E0DF7002C095958795DA95E2F7B2
:1012100080FD07C0C701022E01C0880F0A94EAF7BB
:1012200002C080E090E09081892B80832F5F3F4F48
:1012300023303105D1F691E0181301C090E0C92B9D
:1012400031964D5F5F4F6E177F0759F62C2F42E0A6
:1012500069E571E08BE591E00E9438090E94B202D5
:101260008C2FDF91CF911F91FF90EF9008950895FB
:10127000FF920F931F93CF93DF938C01F62ED72FFE
:10128000C42F222349F081E080935F010E94E32272
:1012900090935E0180935D0180915F018823C1F08E
:1012A00080915D0190915E010E94EF22069780F08F
:1012B000EF2DFD2FD8014C2F50E0CD01801B910B5D
:1012C000841795071CF48D918193F7CF10925F01DD
:1012D000DF91CF911F910F91FF900895EF92FF92B0
:1012E0000F931F93CF93DF93F62E472FE82FF0E055
:1012F000711106C0E55DFD4F6491762F862F72C097
:10130000272F30E0E55DFD4FE4910E2F10E056E011
:10131000659FC0011124CFEFD0E0BE010E94742A66
:101320005BEA5603C001579F900D11248F0D911D4C
:101330008F0D911D982F990F890F7E01E21AF30AE4
:10134000E09ED001E19EB00DF09EB00D1124489FAB
:10135000A0011124452F55277E01E41AF50AE09ECD
:10136000A001E19E500DF09E500D11247E01E81A5F
:10137000F108E29EC001E39E900DF29E900D1124B3
:10138000892F9927C81BD90BC09FC001C19F900D01
:10139000D09F900D11246230710591F048F46115D1
:1013A0007105E1F061307105A9F48B2F752F19C01B
:1013B0006430710561F038F06630710579F00AC06B
:1013C000892F7B2F0EC08E2F7B2FE52F0AC08E2FEB
:1013D000792F02C0852F7E2FEB2F03C08B2F7E2FFE
:1013E000E92F6E2FDF91CF911F910F91FF90EF901A
:1013F00008950895CF93DF93762FE901682F842F06
:101400000E946E09798368838A83DF91CF91089562
:101410008091FF01282F269530E02115310519F420
:101420008170826005C02532310524F081708864A6
:101430008093FF01089588E090E00C94212BCF92D7
:10144000DF92EF92FF926B017C010E94080AB701C4
:10145000A60188E090E0FF90EF90DF90CF900C9491
:101460003F2BEFEFF1E083E0808311828FEF8283E7
:101470008383148260817181828193810C941F0A1D
:101480008091FF0180FF02C08695089580E0089555
:1014900080910302833018F48F5F80930302609180
:1014A000FF017091000280910102909102020C9460
:1014B0001F0A80910302882319F081508093030250
:1014C0006091FF01709100028091010290910202EF
:1014D0000C941F0A6091040170E08091FF0180FF6D
:1014E0000AC08091640123E0829FC00111248C5FB7
:1014F0009D4F0C946C0F80916301909103018917AB
:1015000080F7E82FF0E09F01220F331FE20FF31F57
:10151000EC5FFD4F1182108212828F5FF0CF9091AD
:10152000FF0190FF16C09091630120910301921773
:1015300070F4E92FF0E0DF01AA0FBB1FEA0FFB1FD9
:10154000EC5FFD4F8183608342839F5FF0CF0C94FB
:101550006A0A0895CF93DF9300D01F92CDB7DEB70C
:101560009091FF0190FF0AC09E012F5F3F4F0E94A4
:10157000FA094B8169818A810E948F0A0F900F902E
:101580000F90DF91CF910895CF93DF93EC01EC8121
:10159000F0E0EA5DFE4F4491EFEFF1E0628181817E
:1015A0000E94AA0A8C818F5F8C83DF91CF9108956E
:1015B000CF93DF93EC01EFEFF1E0438162818C8107
:1015C0000E94AA0A8C818F5F8C83DF91CF9108954E
:1015D0000F931F93CF93DF9300D01F92CDB7DEB749
:1015E0008C018091600181110AC09E012F5F3F4FE5
:1015F0004FEF6FEF0E94FA098A8180936001F80132
:101600008481813051F028F0823061F44091600192
:101610000AC08091600140E007C06091600140E035
:1016200080E003C040E080E060E00E948F0AF801A3
:10163000848190E0019663E070E00E94882A8483B0
:101640000F900F900F90DF91CF911F910F91089500
:10165000AF92BF92CF92DF92EF92FF920F931F93C0
:10166000CF93DF9300D01F92CDB7DEB7182FF62EA1
:10167000042FE22E9091FF0190FF6DC0E92FE695B7
:10168000AE2FB0E0AD5DBE4F8C9180936C019E7F1C
:10169000923061F49E012F5F3F4F812F0E94FA0923
:1016A0004B8169818A810E948F0A43C0823019F47C
:1016B000009102023EC0863019F41091000239C038
:1016C0008930D9F38931A9F5E9518E2F8170D82E4F
:1016D000E695F0E0EA5DFD4FA590B490C12CBB24E7
:1016E00060910201C61618F52C2D30E0A29EC001B3
:1016F000A39E900DB29E900D112470E00E94742A5A
:10170000812FD11002C0860F01C0861B909163010A
:10171000290F311DA901440F551F240F351F2C5FC0
:101720003D4F402F6F2D0E94FA09C394D9CF0E94DC
:101730006A0A10930002F092010200930202EE2066
:1017400051F06091FF01709100028091010290912F
:1017500002020E941F0A0F900F900F90DF91CF910D
:101760001F910F91FF90EF90DF90CF90BF90AF90BF
:101770000895EFEFF1E09181282F4381628188E0A5
:10178000890F0C94280B81E00C94B90BEFEFF1E07A
:101790009181282F4381628188EF890F0C94280B57
:1017A00081E00C94C60BEFEFF1E0628128E0620F5C
:1017B00008F46FEF282F438181810C94280B81E07E
:1017C0000C94D30BEFEFF1E0628128E0621B08F488
:1017D00060E0282F438181810C94280B81E00C94D8
:1017E000E20BEFEFF1E0438128E0420F08F44FEF06
:1017F000282F628181810C94280B81E00C94F10BDD
:10180000EFEFF1E0438128E0421B08F440E0282F8D
:10181000628181810C94280B81E00C94000C20E003
:101820000C94280BFF920F931F93CF93DF93EC013F
:10183000F12C0FEF10E060910201F616F0F48091A8
:1018400063012F2D30E0280F311DC901880F991F2A
:10185000280F391F2C5F3D4F70E0C8010E94882A75
:10186000962F8C814091020260910102F99E800DB9
:1018700011240E94FA09F394DECF0E946A0A9A8129
:101880008C8190FF02C08F5F01C081508C83DF91FB
:10189000CF911F910F91FF900895AF92BF92CF9279
:1018A000DF92EF92FF920F931F93CF93DF93FC0190
:1018B000828180FF02C00FEF01C001E010E04BE029
:1018C000A42E80910201181708F043C08091630193
:1018D000C12ED12CE601C80FD11DCE01880F991F52
:1018E000C80FD91FCC5FDD4F198218821A8234E0ED
:1018F000E32EF12CB12C809162018B0D8C302CF0F9
:101900006A2D0E94662A892F05C087FF03C0909127
:101910000201890F082E000C990BC816D90691F404
:10192000809102028E9DA0018F9D500D112455952E
:101930004795559547959E0160910102809100025F
:101940000E94FA09B00EF1E0EF1AF108A1F61F5F4C
:10195000B8CF0E946A0A80916201013031F481118E
:1019600002C080910201815007C090E00196609111
:10197000020170E00E94882A80936201DF91CF917A
:101980001F910F91FF90EF90DF90CF90BF90AF909D
:101990000895CF938091630190910301891770F4AA
:1019A000E82FF0E09F01220F331FE20FF31FEC5FDF
:1019B000FD4F1182108212828F5FF0CFC0E06091E4
:1019C0000201C617C0F5EC2FF0E070E0CF010E94D5
:1019D000882A20916301820F20916101022E000C60
:1019E000330B90E0E217F307CCF020910101022EB7
:1019F000000C330B2E173F078CF09C01220F331F76
:101A0000820F931F9C012C5F3D4F40910202609119
:101A10000102809100020E94FA090BC0FC01EE0F46
:101A2000FF1F8E0F9F1FFC01EC5FFD4F1182108284
:101A30001282CF5FC4CF0E946A0A20910001809178
:101A40006101820F8093610190910101920F909347
:101A5000010119165CF4082E000C990B409102014B
:101A600050E041505109841795071CF021952093AF
:101A70000001CF9108950F931F93CF93DF938C01B3
:101A8000FC018481958101968170992795838483D7
:101A9000C0E0D5E580910201C81700F5809163018F
:101AA0002C2F30E0280F311DC901880F991F280FF6
:101AB000391F2C5F3D4F4C2F4695F801848195814D
:101AC000840F911D817040910202609101028D9FEF
:101AD000802D11240E94FA09CF5FDCCFDF91CF91D6
:101AE0001F910F910C946A0A0F931F93CF93DF936A
:101AF000EC0100E010E080910201282F30E0021795
:101B0000130724F5909163019801290F311DA90154
:101B1000440F551F240F351F2C5F3D4F869590E0D5
:101B20004C81081719071CF4442331F002C04111FD
:101B300003C04091020201C040E060910102809127
:101B400000020E94FA090F5F1F4FD5CF0E946A0A58
:101B50008C8190E00196817099278C83DF91CF91E1
:101B60001F910F910895EFEFF1E080818E7F8083C8
:101B700060817181828193810E941F0A10926D01A0
:101B80002FEF80E792E0215080409040E1F700C0C5
:101B900000000C946A0AEFEFF1E080818E7F808371
:101BA00010926D012FEF80E792E02150804090402D
:101BB000E1F700C000000C946A0A6091FF0166958D
:101BC00070E04BE050E085E091E00E940C2B892B07
:101BD00019F481E080936D010E94E32290936601E5
:101BE0008093650108959091FF0190FF35C0917039
:101BF000811102C0926006C0853210F0986402C064
:101C0000880F982B9093FF01662351F06091FF019C
:101C10007091000280910102909102020E941F0ABD
:101C20006091FF01669570E04BE050E085E091E047
:101C30000E940C2B892B19F010926D0102C00E949A
:101C4000DD0D81E080936801409102026091010204
:101C5000809100020C940F0C0895682F9091FF0161
:101C6000969581E0890F853208F081E00C94F30DA0
:101C700081E00C942D0E682F9091FF0196958FEFC7
:101C8000890F09F484E20C94F30D81E00C943B0E6F
:101C900061E00C94F30DEFEFF1E0808181608083CF
:101CA00086950C94480E8091FF0180FD0C94B30D35
:101CB0000C944B0E60E00C94F30D80916B0181113C
:101CC00033C08091F00181608093F0010E944B212C
:101CD000811104C00E94F4210E94310A0E941B0A53
:101CE0006093FF01709300028093010290930202BF
:101CF0006E7F61F40E94310A0E941B0A6093FF010B
:101D00007093000280930102909302020E94080ADD
:101D100010926D018091FF0180FF03C086950E94A3
:101D20005A0E81E080936B010895EFEFF1E080811E
:101D30008160808386950C945A0E10926D010895EF
:101D40000F931F93CF93DF9380916D01882309F444
:101D50008CC080916C01E091FF01E695E81BE09357
:101D60006701823049F4F0E0EE5DFE4FE491CE2F42
:101D7000D0E004EC1AE049C0863049F4F0E0E15EBE
:101D8000FE4FE491CE2FD0E008ED1AE03EC089303E
:101D900051F4E695F0E0E45EFE4FE491CE2FD0E002
:101DA00002E11CE032C08F3051F4E695F0E0E75ECE
:101DB000FE4FE491CE2FD0E00DE41CE026C085312B
:101DC00049F4F0E0EA5EFE4FE491CE2FD0E009EC5A
:101DD0001CE01BC0883181F0833239F4E4E1F1E08A
:101DE000C591D49108EE1AE010C0843251F4C4EFCA
:101DF000D1E004E71DE009C0C8EED3E00BE31DE02D
:101E000004C0C0EDD7E009EF19E080916801882394
:101E100089F0109268010E94E3229E01209530957E
:101E2000820F931F909366018093650110926A015F
:101E30001092690180916501909166010E94EF22E4
:101E40008C179D0790F0E0916501F0916601CE0F2F
:101E5000DF1FD0936601C093650185E691E0F8012C
:101E6000DF91CF911F910F910994DF91CF911F9135
:101E70000F9108952BB1342F309523233BB1432B81
:101E80003FB7F894FC01680F791FE617F70789F050
:101E9000819198E04BB9000000C087FF2BB9880FF3
:101EA000000000C000C000C02BB900C09A9591F797
:101EB000ECCF3FBF08952AB1242B2AB99B01220FF2
:101EC000331F620F731F0E943A0F87EC90E0019757
:101ED000F1F700C00000089548E00C945B0F8F926A
:101EE0009F92AF92BF92CF92DF92EF92FF920F93A9
:101EF0001F93CF93DF937C01DC01ED91FC91CF0127
:101F0000815095458F3F910510F4B5E5FB27DB0126
:101F10001296CC91CC2309F4B4C2EF3FF10579F0CD
:101F200070F0EE3DFC4519F010926E0160C3909187
:101F30006E0181E0892780936E01A0E059C3A091D2
:101F40006E01AA2309F4EBC010926E01E03CF1058A
:101F500040F4E038F10508F073C0E034F105D0F545
:101F600005C0EF3FF10509F008F4A0C021E030E022
:101F700040E050E060E070E080E090E00E2F0E94D2
:101F8000DE2AB0916F012B2BB09170013B2BB091E9
:101F900071014B2BB09172015B2BB09173016B2BD4
:101FA000B09174017B2BB09175018B2BB0917601B0
:101FB0009B2B20936F0130937001409371015093DC
:101FC0007201609373017093740180937501909313
:101FD0007601A1C021E030E040E050E060E070E038
:101FE00080E090E08F01005411090E94DE2AB09138
:101FF00077012B2BB09178013B2BB09179014B2BC2
:10200000B0917A015B2BB0917B016B2BB0917C017D
:102010007B2BB0917D018B2BB0917E019B2B20936C
:102020007701309378014093790150937A0160935E
:102030007B0170937C0180937D0190937E016BC046
:1020400021E030E040E050E060E070E080E090E0CF
:102050008F01005811090E94DE2AB0917F012B2BBD
:10206000B09180013B2BB09181014B2BB09182014B
:102070005B2BB09183016B2BB09184017B2BB091D2
:1020800085018B2BB09186019B2B20937F01309390
:10209000800140938101509382016093830170938A
:1020A0008401809385019093860135C021E030E062
:1020B00040E050E060E070E080E090E08F01005C84
:1020C00011090E94DE2AB09187012B2BB091880163
:1020D0003B2BB09189014B2BB0918A015B2BB091C6
:1020E0008B016B2BB0918C017B2BB0918D018B2BD5
:1020F000B0918E019B2B20938701309388014093F0
:10210000890150938A0160938B0170938C018093B5
:102110008D0190938E01E701F983E88369C2E03471
:10212000F105D0F4A0906F01B0907001C0907101E2
:10213000D0907201E0907301F0907401B09175013C
:102140001091760121E030E040E050E060E070E086
:1021500080E090E00E2F5DC0E038F105E8F4A0903B
:102160007701B0907801C0907901D0907A01E09029
:102170007B01F0907C01B0917D0110917E0121E006
:1021800030E040E050E060E070E080E090E04F013F
:10219000D0E48D1A91083CC0E03CF105E8F4A09031
:1021A0007F01B0908001C0908101D0908201E090C9
:1021B0008301F0908401B09185011091860121E0A6
:1021C00030E040E050E060E070E080E090E04F01FF
:1021D000D0E88D1A91081CC0A0908701B0908801AA
:1021E000C0908901D0908A01E0908B01F0908C0121
:1021F000B0918D0110918E0121E030E040E050E07F
:1022000060E070E080E090E04F01D0EC8D1A910822
:10221000082D0E94DE2AA222B322C422D522E62261
:10222000F722B823192321E030E040E050E060E0DD
:1022300070E080E090E0E034F105A0F04F01E0387C
:10224000F10520F4D0E48D1A91080AC0E03CF105B4
:1022500020F4D0E88D1A910803C0D0EC8D1A9108B3
:10226000082D01C00E2F0E94DE2A0B2F0E94F72A94
:1022700009F0BDC1E03CF10548F4E038F10508F093
:1022800084C0E034F10508F042C005C0EF3FF1051D
:1022900009F008F4B8C021E030E040E050E060E030
:1022A00070E080E090E00E2F0E94DE2A20953095AD
:1022B000409550956095709580959095E0916F014F
:1022C0002E23E09170013E23E09171014E23E091B5
:1022D00072015E23E09173016E23E09174017E230D
:1022E000E09175018E23E09176019E2320936F018A
:1022F00030937001409371015093720160937301A8
:1023000070937401809375019093760171C18F0170
:102310000054110921E030E040E050E060E070E05E
:1023200080E090E00E94DE2A2095309540955095FF
:102330006095709580959095E09177012E23E091BE
:1023400078013E23E09179014E23E0917A015E23EA
:10235000E0917B016E23E0917C017E23E0917D0181
:102360008E23E0917E019E232093770130937801A4
:102370004093790150937A0160937B0170937C01C3
:1023800080937D0190937E0133C18F010058110924
:1023900021E030E040E050E060E070E080E090E07C
:1023A0000E94DE2A20953095409550956095709555
:1023B00080959095E0917F012E23E09180013E234E
:1023C000E09181014E23E09182015E23E09183013F
:1023D0006E23E09184017E23E09185018E23E091BC
:1023E00086019E2320937F013093800140938101D9
:1023F00050938201609383017093840180938501DF
:1024000090938601F5C08F01005C110921E030E056
:1024100040E050E060E070E080E090E00E94DE2A62
:102420002095309540955095609570958095909544
:10243000E09187012E23E09188013E23E0918901FC
:102440004E23E0918A015E23E0918B016E23E0919F
:102450008C017E23E0918D018E23E0918E019E23DD
:1024600020938701309388014093890150938A011A
:1024700060938B0170938C0180938D0190938E01FA
:10248000B7C0EF3FF10511F008F0AEC0E034F10540
:10249000D0F4C0906F01D0907001E0907101F09085
:1024A000720110917301C0917401B0917501A091F6
:1024B000760121E030E040E050E060E070E080E054
:1024C00090E00E2F5DC0E038F105E8F4C090770190
:1024D000D0907801E0907901F0907A0110917B0121
:1024E000C0917C01B0917D01A0917E0121E030E09E
:1024F00040E050E060E070E080E090E05F01D0E418
:10250000AD1AB1083CC0E03CF105E8F4C0907F0191
:10251000D0908001E0908101F090820110918301C0
:10252000C0918401B0918501A091860121E030E045
:1025300040E050E060E070E080E090E05F01D0E8D3
:10254000AD1AB1081CC0C0908701D0908801E090FE
:102550008901F0908A0110918B01C0918C01B0919A
:102560008D01A0918E0121E030E040E050E060E07C
:1025700070E080E090E05F01D0ECAD1AB1080A2D68
:102580000E94DE2AA22EAC20B32EBD20C42ECE2067
:10259000D52EDF20E62EE122F72EFC22B823192FBC
:1025A0001A23E034F10570F0E038F10518F4E05436
:1025B000F10908C0E03CF10518F4E058F10902C047
:1025C000E05CF10921E030E040E050E060E070E0E4
:1025D00080E090E00E2F0E94DE2AA1E00B2F0E94E7
:1025E000F72A19F4A0E001C0A1E0A17001C0AC2F4E
:1025F0008A2FDF91CF911F910F91FF90EF90DF9085
:10260000CF90BF90AF909F908F9008950E944B21E4
:10261000811102C00E94F4210E947C218093250236
:10262000282F26952695269530E02830310524F070
:1026300087708863809325028091250280FF04C003
:1026400086958695869501C080E00C94F1132091C3
:102650002502822F869586958695482F50E0473033
:10266000510554F48F5F982F990F990F990F822F6E
:102670008770892B80932502809125028160809349
:1026800025020E9480218091250286958695869557
:102690000C94F11380912502982F96959695969516
:1026A000A1F0915E990F990F990F8770892B8093F4
:1026B0002502887F91E009F490E08091250290FB4B
:1026C00080F9809325020E948021809125028695C1
:1026D000869586950C94F1138091250280FD13C098
:1026E000816080932502813019F489E0809325026E
:1026F000809125020E9480218091250286958695F1
:1027000086950C94F11308958091250280FF08C0EE
:102710008E7F809325020E94802180E00C94F1132B
:1027200008958091250280FD0C9484130C946C1301
:1027300090912502892F8695869586958F5F8F715A
:102740009770883038F4880F880F880F892B809312
:10275000250202C09093250280912502887F91E096
:1027600009F490E08091250290FB80F98093250286
:102770000E948021809125028695869586950C94ED
:10278000F113883008F087E0880F880F880F909148
:1027900025029770892B80932502887F91E009F4A8
:1027A00090E08091250290FB80F9809325020E94A1
:1027B0008021809125028695869586950C94F1134B
:1027C000E82FE295EF70F0E032A1282F2F7081E022
:1027D00090E001C0880F2A95EAF78095832382A3B1
:1027E0000895CF92DF92EF92FF92883030F48111FA
:1027F00005C0909180009F7D04C087E0909180008B
:10280000906290938000282F30E0AFEFBFEF0E94DE
:10281000C42A27E030E040E050E00E949C2AC90131
:102820002C3764E1360728F469E070E00E94742ACE
:1028300029C0DA01C9018A50974DAF4FBF4F6627B3
:10284000782F892F9A2F25EF38E241E050E00E943F
:102850009C2A69017A01CA01B9010E94562A9B018A
:10286000AC01C701B6010E94562ABB27A92F982F99
:10287000872F009721E0A207B10511F0BC0102C02B
:102880006FEF7FEF70938B0060938A00FF90EF9063
:10289000DF90CF9008950895269A86E30E94E01372
:1028A00082E28093800089E1809381008FEF9FEF27
:1028B00090938700809386000C9406130C94550225
:1028C0005198599A85988D9A89B1869581707D998C
:1028D00002C090E001C092E0892B8093900108959E
:1028E000E0919001EE0FEE0FE093900149B141FBB2
:1028F000882780F990E04FB145FB222720F930E08E
:1029000045FF02C022E030E0822B932B8E2B809378
:1029100090018F70E82FF0E0E85BFE4F908180918E
:102920008F01890F80938F01843024F060E080E074
:102930000E945E1480918F018D3F24F461E080E05D
:102940000E945E1480918F01837887FF03C08150BD
:102950008C6F8F5F80938F0108950F931F93CF9398
:10296000DF93C62FD42F122FFC0182818823C9F058
:10297000609393010E94E3229093920180939101CE
:1029800080E28C0F883008F057C0C77081E001C02A
:10299000880FCA95EAF7DF91CF911F910F910C94A0
:1029A000321880919301681330C080919101909109
:1029B00092010E94EF22883C910538F500E20D0F4C
:1029C000CD17B9F080E28C0F883040F4C77081E0F9
:1029D00001C0880FCA95EAF70E943918083028F517
:1029E00081E09D2F977001C0880F9A95EAF70E94A9
:1029F0003218812F0E941F180830F0F4D77081E040
:102A000001C0880FDA95EAF70AC080E28C0F88309F
:102A100098F4C77081E001C0880FCA95EAF7DF918A
:102A2000CF911F910F910C943918812FDF91CF9185
:102A30001F910F910C941F18DF91CF911F910F914F
:102A400008959C01CB01243F4CE53407F9F078F45C
:102A5000283DFCE53F07B9F0293D4CE5340711F16D
:102A6000273D3C4531F526E241EE61EE1EC0263F92
:102A7000FCE53F0799F070F0273F3C45D1F427E291
:102A800045EE66EE12C027E245EE0EC026E241EEAC
:102A900060EE0BC027E245EE64EE07C026E241EE91
:102AA00062EE03C028E241E065EE0E94AD1480E0D2
:102AB0000895FC018281882319F0109293010895F2
:102AC00081E0089590939901809398010895E09191
:102AD0009801F0919901309721F00190F081E02D5B
:102AE000099480E00895E0919801F0919901309760
:102AF00021F00280F381E02D099408952091960140
:102B0000309197012817390771F0909397018093BE
:102B10009601E0919801F0919901309721F006809B
:102B2000F781E02D09940895209194013091950149
:102B30002817390771F09093950180939401E091E3
:102B40009801F0919901309721F00084F185E02DF2
:102B50000994089585B7806885BF85B7806885BF6B
:102B6000089508950C94B1150C94B2150C94B115F8
:102B70000C94B1150E94AA150E94B6150C94B415B8
:102B800081E008950E94DA220E94A4080E94502346
:102B90000E9406130E945D0E0C94B815BF92CF924E
:102BA000DF92EF92FF920F931F93CF93DF93CDB7F6
:102BB000DEB72A970FB6F894DEBF0FBECDBF0E94D6
:102BC000E2080E94C015811111C08FEF89838A83AA
:102BD0001B820E94E3228160782F9D838C83498130
:102BE0005A816B818D810E94751654C08BE9C82E65
:102BF00081E0D82E00E010E0B02E802F0E949D08CA
:102C0000E82EF60121916F01F82EF22631F40F5FC4
:102C10001F4F02301105C9F2EFCF8091F00181FD05
:102C20000E94A30880E090E02F2D30E0482FB901EA
:102C3000082E02C0759567950A94E2F760FF25C0DB
:102C40008E83BF8281E090E06C0102C0CC0CDD1C61
:102C50004A95E2F72E2D30E02C213D21232B09F45B
:102C600080E088870E94E3228160782F9A87898795
:102C70004E815F8168858A850E947516F801E55648
:102C8000FE4F80818C25808305C00196833091059D
:102C900069F6BDCF0E94671590919A018917A9F036
:102CA0000E94671580939A012A960FB6F894DEBFAA
:102CB0000FBECDBFDF91CF911F910F91FF90EF908D
:102CC000DF90CF90BF900C94BB022A960FB6F89479
:102CD000DEBF0FBECDBFDF91CF911F910F91FF904F
:102CE000EF90DF90CF90BF900895CF93DF93CDB753
:102CF000DEB72B970FB6F894DEBF0FBECDBF4F8364
:102D0000588769877A878B87DE01119686E0FD01F7
:102D100011928A95E9F785E0FE01379601900D92B0
:102D20008A95E1F749815A816B817C818D819E81F1
:102D30000E94871D2B960FB6F894DEBF0FBECDBF45
:102D4000DF91CF910895FC01808191810E945B20E9
:102D50000895882309F413C1682F8238C1F40E94B2
:102D6000671581FD0CC169E38091100190911101FB
:102D70000E942E220E94E8202FEF81EE94E0215045
:102D800080409040E1F700C0000069E319C083383B
:102D9000F9F40E94671580FDF2C063E5809110018F
:102DA000909111010E942E220E94E8202FEF81EEC7
:102DB00094E0215080409040E1F700C0000063E5BE
:102DC00080911001909111010E9430220C94E82012
:102DD0008438C1F40E94671582FDD1C067E48091F8
:102DE0001001909111010E942E220E94E8202FEFE5
:102DF00081EE94E0215080409040E1F700C0000057
:102E000067E4DECF8CEF860F813A38F480911001B1
:102E1000909111010E942E22D9CF80E2860F883036
:102E200048F4677081E001C0880F6A95EAF70E9454
:102E30009D20CCCF8BE5860F833070F4653A29F066
:102E4000663A31F083E890E005C081E890E002C086
:102E500082E890E00C947E1588E5860F873108F0B3
:102E60008EC0683A09F445C0693A09F445C06A3A27
:102E700009F445C06B3A09F445C06C3A09F445C001
:102E80006B3B09F445C06C3B09F445C06D3A09F44D
:102E900045C0603B09F445C06E3A09F445C06F3A3D
:102EA00009F445C0613B09F445C0623B09F445C0E3
:102EB000633B09F445C0643B09F445C0653B09F434
:102EC00045C0663B09F445C0673B09F445C0683B13
:102ED00009F445C0693B09F445C06D3B09F445C0A0
:102EE0006E3B09F445C06A3B09F445C080E090E0C0
:102EF00044C082EE90E041C089EE90E03EC08AEE90
:102F000090E03BC085EB90E038C086EB90E035C0A8
:102F100083EB90E032C084EB90E02FC087EB90E031
:102F20002CC08CEC90E029C08DEC90E026C083E8AA
:102F300091E023C08AE891E020C082E991E01DC0C1
:102F400084E991E01AC081E292E017C083E292E046
:102F500014C084E292E011C085E292E00EC086E2E5
:102F600092E00BC087E292E008C08FE690E005C0D7
:102F700080E790E002C08AE292E00C9494150895F4
:102F8000882309F45BC0682F823879F40E946715A2
:102F900081FF54C069E380911001909111010E945A
:102FA0002E220E94E82069E310C08338B1F40E9409
:102FB000671580FF43C063E5809110019091110176
:102FC0000E942E220E94E82063E5809110019091DA
:102FD00011010E9430220C94E820843879F40E9478
:102FE000671582FF2BC067E4809110019091110159
:102FF0000E942E220E94E82067E4E7CF8CEF860F24
:10300000813A18F380E2860F883048F4677081E0D7
:1030100001C0880F6A95EAF70E94A320DCCF8BE5F8
:10302000860F833020F480E090E00C947E15685A7F
:10303000673120F480E090E00C9494150895CF93CC
:10304000C82F0E94A916C93349F42FEF87EE93E0E9
:10305000215080409040E1F700C000008C2FCF91BC
:103060000C94C017882321F00E949D200C94E82026
:103070000895882321F00E94A3200C94E82008954D
:10308000CF92DF92EF92FF920F931F93CF93DF9334
:103090007C01062FC72FFC01158112951F70D2816C
:1030A000D1110E94BA200E949320882379F0DD2359
:1030B00069F080E2800F883048F082E00E9432217F
:1030C0000E94932091E0D82ED92601C0D12CCC2E7D
:1030D000C2948FE0C8228C2D90E0FC01EA5AFF4F89
:1030E0000C94BE2A8C2F807FCF70882311F0C2955C
:1030F000C07FDD2399F0CC2309F483C180E2800FE7
:10310000883010F0011104C08C2F0E949D2003C054
:103110008C2F0E94AD200E94E82073C1802F0E9456
:10312000C017CC2309F4B3C180E2800F883010F0BF
:10313000011104C08C2F0E94A32003C08C2F0E9479
:10314000B3200E94E820A3C18C2F807FCF708032F3
:1031500011F0C295C07F002319F00130C9F022C0E0
:10316000DD2371F0112341F0113031F40E94CD20A4
:103170008C2B0E94D5208BC10E94CD208C2B1DC092
:10318000112319F0113009F482C10E94DE2025C0FC
:10319000DD2321F0163008F07AC10EC0153008F09A
:1031A00076C11BC0DD2361F0112331F0F701858169
:1031B00080FF27C18F7085838C2F0E94321867C1D2
:1031C000112359F0093309F02DC1FFEF27EE83E0F9
:1031D000F15020408040E1F723C18C2F0E94391824
:1031E00056C18C2F86958695837019F0813061F0D9
:1031F0004EC1DD2321F0802F9C2F937002C080E010
:1032000090E00E947E154BC1DD2321F0802F9C2F82
:10321000937002C080E090E00E94941540C18C2F12
:10322000837009F045C0D11136C1402F42954695B3
:103230004770440F440F602F6F70862F90E0A0E01E
:10324000B0E0042E04C0880F991FAA1FBB1F0A9468
:10325000D2F704FF10C00FE010E020E030E004C01F
:10326000000F111F221F331F4A95D2F700951095AA
:103270002095309503C000E010E09801C695C695F2
:10328000C370BC01CD01602B712B822B932BC230FC
:1032900049F058F4C13019F00E94D81EFCC00E94B9
:1032A000C61EF9C00E94EA1EF6C00E94C41EF3C0EA
:1032B000DD2319F08C2F817001C08695882309F4D5
:1032C000EAC0402F429546954770440F440F602F47
:1032D0006F70862F90E0A0E0B0E0042E04C0880F4D
:1032E000991FAA1FBB1F0A94D2F704FF10C00FE05A
:1032F00010E020E030E004C0000F111F221F331F38
:103300004A95D2F7009510952095309503C000E0BE
:1033100010E09801C695C695C370BC01CD01602B25
:10332000712B822B932BC23049F058F4C13019F025
:103330000E949D1FB0C00E948B1FADC00E94AF1F96
:10334000AAC00E94FE1EA7C0CF70DD2339F08C2FCB
:103350000E94241F802F0E9432189DC0802F0E943F
:1033600039188C2F0E94451F96C0023F01F128F4A6
:10337000003F41F0013FA1F040C0033FF9F0043F9E
:1033800039F13BC0DD2341F0153008F080C08C2FAF
:103390008F710E946A1F7BC0163008F078C0F7CF8B
:1033A000DD2339F08C2F8F710E94241F70C0DD2324
:1033B000C9F38C2F8F710E94451F69C0DD2329F04E
:1033C0008C2F8F710E940F1F62C00E940A1F5FC066
:1033D000DD2349F0CF718C2F0E94241F63E08C2FD6
:1033E0000E941D2154C081E00E943221123008F455
:1033F0004EC082E00E9432214AC0DD2331F0112309
:1034000089F2802F0E94A91642C0112391F209333C
:1034100049F49FEFE7EEF3E09150E040F040E1F730
:1034200000C00000802F0E94C01731C04C2F4F7089
:10343000602FC7010E94AE050E94351E30C0D11119
:103440002EC0CF70C23091F038F4CC2361F0C1307F
:10345000F1F40E944A1323C0C43071F050F0C5301B
:10346000B1F480E00AC00E94271319C00E94911392
:1034700016C00E94981313C087E00E94C1130FC0AA
:103480004C2F4F70602FC7010E94B10508C088EF14
:103490008C0D843020F40E9467150E94BB02DD2051
:1034A000C9F00E948F2080FD15C0F70112820E9492
:1034B00089200E94241FC7010E94731A0E9489203C
:1034C000DF91CF911F910F91FF90EF90DF90CF9000
:1034D0000C94451FDF91CF911F910F91FF90EF90BA
:1034E000DF90CF9008950F931F93CF93DF93EC015C
:1034F000988189812B813C81232B31F08F3F31F4DE
:1035000081E09F3F19F403C081E001C080E080FDAD
:1035100013C0CE010E94D302882371F068817981A3
:103520008A810E9466208C010E94C11F0E94B21EE7
:10353000B801CE010E944018DF91CF911F910F91E9
:1035400008950E94BA200E94CA200E94E82080E0CC
:1035500090E00E947E1580E090E00C94941580919C
:103560001001909111010E9432220C94A11A0E9424
:10357000AA200C94AF1AE92FE295EF704E2F50E07D
:10358000FA013297EE30F105B0F4EA59FF4F0C948E
:10359000BE2A803F91F018F4883E68F40EC0843F44
:1035A00051F40BC0883E48F0813F29F406C093FBDC
:1035B000882780F9089580E0089581E008950E94A9
:1035C0005B200E94BB1A0895CF93DF9300D000D0F8
:1035D0001F92CDB7DEB70F900F900F900F900F9006
:1035E000DF91CF910895CF93DF9300D000D000D02A
:1035F000CDB7DEB726960FB6F894DEBF0FBECDBFAF
:10360000DF91CF9108951F93CF93DF93C0919E01D7
:1036100016E080919F01C81799F0D0E01C9FF0013F
:103620001D9FF00D1124E056FE4F408151816281B3
:103630007381848195810E94F31A2196C770E9CF26
:10364000DF91CF911F9108954091D0015091D10108
:103650006091D2017091D3018091D4019091D501F4
:103660000C94F31ACF938091D50182958F7009F055
:103670005FC08091D201882309F45AC080919E01D5
:10368000B0919F017091D001A091D1014091D301DF
:103690005091D40191E07F3F09F090E0692FC6E09E
:1036A0008B1709F445C04115510521F0AF3F21F0BA
:1036B00020E003C021E001C0262F90E020FD35C0AE
:1036C000C89FF001C99FF00D1124E056FE4F2181E3
:1036D0002A132BC02081271328C02281211125C045
:1036E000238134812417350710F421503109241B1C
:1036F000350B283C3105C8F42091D5012F7020618D
:103700002093D50126E0289FF001299FF00D112478
:10371000EB55FE4F80818F708061808380ED91E05A
:103720000E94731ACF910C94031B01968770B8CF37
:10373000CF910895AF92BF92CF92DF92EF92FF9216
:103740000F931F93CF93DF93CDB7DEB761970FB67B
:10375000F894DEBF0FBECDBF8C0185E0F801DE011D
:103760001D9601900D928A95E1F7D8014C91119622
:103770005C9111971296EC903091D0016091D1013B
:103780008091D3019091D401009731F06F3F31F4D3
:1037900021E03F3F19F403C021E001C020E0B22F37
:1037A000B170BB2E20FD60C1F801C380D480A09011
:1037B000D201AA2009F4EEC02091D501C816D9067D
:1037C00028F0D601A81BB90BCD0104C080959095B7
:1037D0008C0D9D1DFF24F394883C910580F0F12C05
:1037E000207F09F09CC07C2DD98AC88A6E2D8989DA
:1037F0000E94E41A80ED91E00E94731A2DC1822F7D
:10380000807F09F054C0561314C0431312C0FE2C1D
:10381000E1100FC02F7020612093D5010E94241B5E
:1038200080ED91E00E94731A8091D501F8018583A3
:103830005CC1CD2831F05F3F31F481E04F3F19F496
:1038400003C081E001C080E080FD03C081E08E25DF
:1038500002C080E090E0F82FF170FF2E80FF1CC0C6
:1038600080919E0120919F0136E0821709F41AC1D0
:1038700090E0389FF001399FF00D1124E056FE4F83
:103880006181561306C06081461303C06281E6124F
:1038900003C001968770E9CFFE2CEE2009F425C104
:1038A0008091D50181608093D501F12C1EC1561302
:1038B00009C0431307C0E11005C08091D501F8018C
:1038C0008583A4C04D875E878D859E850E94DF1A03
:1038D000882379F1EE2069F12091D501822F82951C
:1038E0008F7090E0029774F08091D0019091D10197
:1038F00098878F831986DB86CA862C87CE01079628
:103900000E94731A86E0F801A0EDB1E001900D92DB
:103910008A95E1F70E94321B0E94241B0DC05617A6
:1039200071F04D875E878D859E850E94DF1A81111B
:103930001AC0C8010E94731AFF24F394D6C043131F
:10394000F0CFE110EECF8091D501F8018583C80159
:103950000E94731A86E0E0EDF1E0DF011D928A9586
:10396000E9F7FA2CC2C0EE2021F32091D501822F75
:1039700082958F7090E002972CF28091D001909107
:10398000D1019A8389831B82DD82CC822E83CE0172
:103990000196B6CFC816D90628F0F601E81BF90B38
:1039A000CF0104C0809590958C0D9D1D883C91059C
:1039B00048F0F12C7C2DD98AC88A6E2D89890E9405
:1039C000E41A4AC0FE2CEE2009F4B3CF561333C0DC
:1039D000431331C02091D50120FD24C0822F829550
:1039E0008F70482F50E041155105E1F0D801159630
:1039F0002C9315974F30510549F08F5F982F929572
:103A0000907F822F8F70892B15968C93C8010E940E
:103A1000731A86E0F801A0EDB1E001900D928A954D
:103A2000E1F73DC086E0F801A0EDB1E001900D9214
:103A30008A95E1F75AC04D875E878D859E850E94E5
:103A4000DF1A81115FCF8091D50181608093D5010C
:103A5000C8010E94731A49C0E0EDF1E086E0DF0181
:103A60001D928A95E9F71BC0EE2009F462CF4D87BD
:103A70005E878D859E850E94DF1AF82E882309F4C3
:103A800058CF86E0F801A0EDB1E001900D928A9543
:103A9000E1F780ED91E00E94A3160E94321B0E9484
:103AA000241B23C04D875E878D859E850E945B20E9
:103AB000292F22952F70223028F49F7039F0811120
:103AC00005C00BC0243028F49F7049F4805E883014
:103AD00020F0C8010E94731ABF2CFB2C06C0D8012D
:103AE00015969C91907F91F7F8CF8F2D61960FB628
:103AF000F894DEBF0FBECDBFDF91CF911F910F9124
:103B0000FF90EF90DF90CF90BF90AF9008951F93FC
:103B1000CF93DF93CDB7DEB72C970FB6F894DEBF07
:103B20000FBECDBF4F83588769877A878B879C8765
:103B3000CE0107960E949A1B8823D1F09F81888529
:103B40002A853B85232B31F08F3F31F481E09F3F65
:103B500019F403C081E001C080E080FD47C04F81BF
:103B6000588569857A858B859C850E94F31A3EC0AD
:103B700086E0FE013796DE01119601900D928A953E
:103B8000E1F7FF81E8856A857B856115710531F074
:103B9000EF3F31F481E0FF3F19F403C081E001C041
:103BA00080E080FD23C020919F0130E0C901019693
:103BB0008770992740919E0150E084179507F1F195
:103BC000F983EA837D836C8396E0929FD001939F73
:103BD000B00D1124A056BE4FFE01319601900D92FA
:103BE0009A95E1F780939F010E94031B16E0809154
:103BF0009E0190919F01891771F1189FC0011124B6
:103C000080569E4F0E949A1B882329F1E0919E01C5
:103C10001E9FF0011124E056FE4F408151816281C8
:103C20007381848195810E94F31A80919E0190E0B6
:103C300001968770992780939E01D9CF0E94B71A69
:103C400010929F0110929E01E0EDF1E086E0DF010D
:103C50001D928A95E9F72C960FB6F894DEBF0FBE39
:103C6000CDBFDF91CF911F910895EF92FF920F93F7
:103C70001F93CF93DF938C01892B09F46CC0F12C37
:103C8000EE24E394E8012196F8018491843740F40E
:103C9000843008F051C0813081F0823019F15BC06E
:103CA000853709F444C0A8F19CE7980F903708F0D5
:103CB00052C08F770E94C01741C00E5F1F4FFE0198
:103CC000849190E2980F983050F48770FE2D01C0D7
:103CD000FF0F8A95EAF78F2F0E94BD2014C00E9423
:103CE000A9162DC00E5F1F4FFE01849190E2980F20
:103CF000983060F48770FE2D01C0FF0F8A95EAF7B7
:103D00008F2F0E94C3200E94E82019C00E94C01774
:103D100016C00E5F1F4FFE01C491CC2381F08FE9C6
:103D20009FE00197F1F700C00000C150F6CF0E5F91
:103D30001F4FFE01F49003C00E94A9168E018F2D23
:103D4000882309F49FCFEFE9FFE03197F1F700C036
:103D500000008150F5CFDF91CF911F910F91FF901F
:103D6000EF900895089508950C94B31E0C94B41E1A
:103D70000E94B61E6093DF017093E0018093E10121
:103D80009093E2010C94A11A0C94B81E0F931F9308
:103D90000091DF011091E0012091E1013091E201F9
:103DA000602B712B822B932B1F910F910C94B81EBB
:103DB0000F931F930091DF011091E0012091E10129
:103DC0003091E20160237123822393231F910F918D
:103DD0000C94B81E0F931F930091DF011091E00126
:103DE0002091E1013091E20160277127822793271A
:103DF0001F910F910C94B81E0C94B31E0E94FC1ED0
:103E00006093DB017093DC018093DD019093DE0110
:103E10000C94A11A60E070E0CB010C94FE1E0F938D
:103E20001F9341E050E060E070E08A019B0104C014
:103E3000000F111F221F331F8A95D2F7C901B80145
:103E40001F910F910C94FE1E0F931F9341E050E0C1
:103E500060E070E004C0440F551F661F771F8A950D
:103E6000D2F78091DB019091DC01A091DD01B0914E
:103E7000DE018A019B01082B192B2A2B3B2BC90140
:103E8000B8011F910F910C94FE1E0F931F9341E0F8
:103E900050E060E070E004C0440F551F661F771FBC
:103EA0008A95D2F740955095609570958091DB0189
:103EB0009091DC01A091DD01B091DE018A019B01AE
:103EC000082319232A233B23C901B8011F910F910D
:103ED0000C94FE1E0F931F9341E050E060E070E0F1
:103EE00004C0440F551F661F771F8A95D2F7809133
:103EF000DB019091DC01A091DD01B091DE018A012E
:103F00009B01082719272A273B27C901B8011F91C0
:103F10000F910C94FE1E0F931F930091DB011091E3
:103F2000DC012091DD013091DE01602B712B822BB1
:103F3000932B1F910F910C94FE1E0F931F930091D2
:103F4000DB011091DC012091DD013091DE01602365
:103F50007123822393231F910F910C94FE1E0F93C4
:103F60001F930091DB011091DC012091DD01309164
:103F7000DE0160277127822793271F910F910C94F0
:103F8000FE1E0895292F220F920F890FE82FE69524
:103F9000E695E695877051E001C0550F8A95EAF7DE
:103FA00085E0E89FF0011124EA52FE4F20E030E066
:103FB00070E04081CB01022E02C0969587950A944D
:103FC000E2F78170819584278523842781932F5F71
:103FD0003F4F2530310569F70895292F220F920FA1
:103FE000890F682F669566956695982F977085E07E
:103FF000689FB001112440E050E080E0FB01E40F35
:10400000F51FEA52FE4F208130E0092E02C036959E
:1040100027950A94E2F721703327042E01C0220F5E
:104020000A94EAF7822B4F5F5F4F4530510531F715
:104030000895BF92CF92DF92EF92FF920F931F935A
:10404000CF93DF938C01C090DB01D090DC01E09036
:10405000DD01F090DE018091DF019091E001A091FF
:10406000E101B091E201C82AD92AEA2AFB2ACFE16C
:10407000D0E0D701C6010C2E04C0B695A795979540
:1040800087950A94D2F780FD04C0219790F7B12C50
:1040900007C0BC2EB8018C2F0E94D0050197A9F350
:1040A0008B2DDF91CF911F910F91FF90EF90DF90BB
:1040B000CF90BF900895CF93DF93EC010E94192019
:1040C000BE010E94D005DF91CF9108951F93CF9339
:1040D000DF93EB0190919D01992321F0CB010E9488
:1040E0005B2013C0882349F0CB010E941920182FB0
:1040F000682FCE010E94C21F04C0CB010E94ED1F99
:10410000182FBE01812F0E94D005DF91CF911F9102
:1041100008958091E3018595859585950895809111
:10412000E301877008959091E301977081E009F4AD
:1041300080E008958091EF0108959091EF01892B1F
:104140008093EF01089580959091EF0189238093EA
:10415000EF0108951092EF0108959091EE01892BDF
:104160008093EE01089580959091EE0189238093CC
:10417000EE0108951092EE0108959091ED01892BC2
:104180008093ED01089580959091ED0189238093AE
:10419000ED0108951092ED0108958091E4010895D4
:1041A00008950C94D0200C94D1209091E40198179C
:1041B00021F08093E4010C94D32008958091E401D0
:1041C000882329F01092E40180E00C94D320089514
:1041D000E0911001F09111018091EF018083E09155
:1041E0001001F091110190818091EE01892B808363
:1041F000E0911001F091110190818091ED01892BE6
:1042000080838091E401882381F0E0911001F09196
:1042100011019081892B808380911001909111016F
:104220000E94FB2181110E94DE208091100190915B
:1042300011010C9473150C94D02098E0899F900183
:104240001124262B2093E3010E94241F8091E30177
:104250008595859585950C941B211092E30180E04E
:104260000C941B212091E301809582238093E3012C
:10427000982F977079F430E0482F082E000C550BDA
:104280002417350739F08595859585950E94451F3A
:104290000C942D21089580E090E00E94272B21E0CE
:1042A0008C3E9E4F09F020E0822F089582E090E03E
:1042B0000C94192B83E090E00C94192BCF9384E09D
:1042C00090E00E94192BC82F81E290E00E94192BE8
:1042D0002C2F30E0A901582BCA01CF910895CF931C
:1042E000C92F682F84E090E00E942D2B6C2F81E273
:1042F00090E0CF910C942D2B86E090E00C94192B3C
:10430000682F86E090E00C942D2BAB01BC018FE070
:1043100090E00C943F2BAB01BC0183E190E00C9446
:104320003F2B60E070E0CB010C948B2160E070E0EB
:10433000CB010E9485210C9491216CEE7EEF80E0F0
:1043400090E00E944B2B60E082E090E00E942D2BD9
:1043500060E083E090E00E942D2B1092DF0110922C
:10436000E0011092E1011092E20160E084E090E04F
:104370000E942D2B60E081E290E00E942D2B60E0F6
:1043800085E090E00E942D2B60E086E090E00E94A6
:104390002D2B6FEF87E090E00E942D2B40E050E046
:1043A000BA0188E090E00E943F2B60E08DE090E051
:1043B0000E942D2B40E050E0BA0188E190E00E947D
:1043C0003F2B60E087E190E00E942D2B40E050E021
:1043D000BA018CE190E00E943F2B60E080E290E027
:1043E0000E942D2B0C9496210C949D21682F8EE019
:1043F00090E00C942D2BFC01329697E080E09150D8
:1044000029F021912223D9F38F5FF9CF08959C01E0
:10441000FC0132969FEF80E04191461789F09F3F63
:1044200019F4411101C0982F8F5F8630A9F79F3F83
:1044300039F0F901E90FF11D97FDFA9562830895AE
:1044400008959C012A5F3F4FFC014281461301C041
:104450001282019682179307B9F708950C940722E8
:104460000C942122029626E0FC0111922A95E9F78C
:10447000089508950C9439220C9439220E943C220C
:104480000E94E2080E943A2280E00E949D08811169
:1044900008C081E00E949D0891E0811103C090E076
:1044A00001C091E0892F08950C9439220C94542274
:1044B0000E94562280913002843009F43CC0109250
:1044C000F10120E488E190E00FB6F894A89580937C
:1044D00060000FBE2093600080E00E94F11380E036
:1044E0000E94BB020E949D0E8091F20181110AC0C0
:1044F00081E08093F2018091FF0181708093F3014C
:104500000E94CB0D0E94562283B7817F846083BFB7
:1045100083B7816083BF7894889583B78E7F83BF8C
:104520000FB6F894A8958091600088618093600030
:10453000109260000FBE08950C9439220E94B71AA1
:104540000E9406130E9467150E94BB021092F2019E
:104550008091F30181110E94950E0E94DD0D0C9453
:104560009C221F920F920FB60F9211248F939F934C
:10457000AF93BF938091F101811113C08091260206
:1045800090912702A0912802B09129024196A11D85
:10459000B11D8093260290932702A0932802B09326
:1045A0002902BF91AF919F918F910F900FBE0F90F5
:1045B0001F90189582E084BD93E095BD9AEF97BD5A
:1045C00080936E0008952FB7F89480912602909101
:1045D0002702A0912802B09129022FBF0895CF92FF
:1045E000DF92EF92FF920F931F932FB7F8944091B1
:1045F00026025091270260912802709129022FBF54
:104600006A017B01EE24FF248C0120E030E0C0161B
:10461000D106E206F30610F4415051099A01281B15
:10462000390BC9011F910F91FF90EF90DF90CF9050
:10463000089578941F920F920FB60F9211248F93C2
:104640009F93AF93BF938091260290912702A091F0
:104650002802B09129020196A11DB11D8093260266
:1046600090932702A0932802B0932902BF91AF91A3
:104670009F918F910F900FBE0F901F90189587E715
:1046800097E790930108809300089AE088E10FB6BD
:10469000F894A895809360000FBE90936000FFCFC0
:1046A0000E944B21811102C00E94F4210E945621D8
:1046B0008093F0010E945E2190932B0280932A0246
:1046C0000E945A21682F70E080E090E00C94C41E94
:1046D0008091FC01089508950F931F93CF93DF936A
:1046E00000D01F92CDB7DEB78C010E949B2582308F
:1046F00011F0843021F584E089831B830A8382E0F2
:104700008093E9008FEF9091E800815095FD06C0FD
:1047100095ED9A95F1F700008111F5CF8091E800B1
:1047200085FF0DC040E050E063E070E0CE010196EF
:104730000E94B8258091E8008E778093E8000F9062
:104740000F900F90DF91CF911F910F910895CF930C
:10475000DF9300D01F92CDB7DEB720913002243016
:1047600031F523E02983805891099B838A8382E075
:104770008093E9008FEF9091E800815095FD06C08D
:1047800095ED9A95F1F700008111F5CF8091E80041
:1047900085FF0DC040E050E063E070E0CE0101967F
:1047A0000E94B8258091E8008E778093E8000F90F2
:1047B0000F900F90DF91CF910895CF93DF93EC018D
:1047C0000E949B25823011F0843039F581E080937E
:1047D000E9008FEF9091E800815095FD06C095EDBE
:1047E0009A95F1F700008111F5CF8091E80085FFDF
:1047F00014C040E050E068E070E0CE010E94B825AF
:104800008091E8008E778093E80088E0FE01A4EFB5
:10481000B1E001900D928A95E1F7DF91CF91089573
:1048200080912F02811109C00E9449270E94A6276A
:104830008091E20084608093E200089510922F023C
:104840000895089508950C949E2242E061EC81E061
:104850000E94C22642E261EC82E00C94C226809162
:104860003202833009F460C030F4813071F082305C
:1048700009F499C008958A3009F485C08B3009F491
:104880006BC0893009F0A7C020C080913102813A05
:1048900009F0A1C08091E800877F8093E8008091B3
:1048A000350290913602892B21F468E084EF91E083
:1048B00003C060E080E090E070E00E9403268091F9
:1048C000E8008B778093E80008958091310281326F
:1048D00009F081C08091350290913602029708F06C
:1048E0007AC08091E800877F8093E8008091E8009B
:1048F00082FD05C0809130028111F8CF6CC02091FB
:10490000F3008091F20090E0922B029729F48091BD
:10491000F1008B7F813021F48091F1008093FC01C4
:104920008091E8008B7753C080913102813A09F081
:1049300052C08091350290913602892B09F04BC00C
:104940008091E800877F8093E8008091E80080FFF5
:10495000FCCF80911C0136C0809131028132D9F5A3
:104960008091350290913602892BA9F58091E8005B
:10497000877F8093E8000E94F7268091330280931E
:104980001C010C94B71A80913102813221F580917B
:10499000E800877F8093E8000E94F7268091340228
:1049A0008093FD01089580913102813AA1F48091B4
:1049B000E800877F8093E8008091E80080FFFCCFCB
:1049C0008091FD018093F1008091E8008E778093C3
:1049D000E8000C94F726089584B7877F84BF0FB64C
:1049E000F894A8958091600088618093600010928F
:1049F00060000FBE80E880936100109261000E9409
:104A0000BA150E9449270E94A6278091E20084607F
:104A10008093E20078940E943B2A0E94C21582E1B2
:104A200091E00E94621580913002853069F40E9405
:104A3000582280912E028823B1F30E943E228823BF
:104A400091F30E94A225EFCF0E94CE150E94A00EE6
:104A5000EACF0C942B25292F332723303105C9F0B9
:104A600060F42130310581F02230310509F04AC06F
:104A70008BE390E025E533E049C02132310511F1A7
:104A80002232310579F13EC082E190E020E933E045
:104A90003DC099278130910561F040F08230910549
:104AA00059F0039779F5EBE2F3E008C0E1E5F3E0B4
:104AB00005C0EFE3F3E002C0E1E3F3E0849190E0AE
:104AC0009F0124C06115710541F061307105D1F479
:104AD00089E090E020E833E019C089E090E027E623
:104AE00033E014C06115710541F06130710551F476
:104AF00086E390E022EA33E009C080E490E028ED0C
:104B000033E004C080E090E020E030E0FA0131833F
:104B1000208308950895CF93C82F0E948A25C093BB
:104B2000FE01CF91089580913002843011F081E030
:104B3000089582E008958091FE01811102C00C94D5
:104B40009325089580E189BD82E189BD09B400FE05
:104B5000FDCF8091D8008F7D8093D8008091E000B8
:104B600082608093E0008091E00081FDFCCF089599
:104B7000CF92DF92EF92FF920F931F93CF93DF9329
:104B8000EC018B017A010E941627811133C0E114D8
:104B9000F10439F0F70180819181081B190BC80FCE
:104BA000D91FC12CD12C0115110519F18091E800F4
:104BB00085FD16C08091E8008E778093E800E114AF
:104BC000F10449F0F70180819181C80ED91ED1828C
:104BD000C08285E00FC00E941627882321F30AC0F7
:104BE00089918093F10001501109FFEFCF1ADF0A7C
:104BF000DACF80E0DF91CF911F910F91FF90EF907E
:104C0000DF90CF9008952091370230913802261717
:104C1000370748F06115710539F42091E8002E77C7
:104C20002093E80001C0B901FC0120E06115710585
:104C300079F1809130028823F1F18530F1F1809192
:104C4000E80083FD3CC08091E80082FD2EC0809189
:104C5000E80080FFEBCF2091F3008091F20090E01C
:104C6000922B6115710551F08830910538F421912E
:104C70002093F100615071090196F3CF21E008976C
:104C800009F020E08091E8008E778093E800CECF95
:104C90002111CFCF0AC080913002882361F0853086
:104CA00061F08091E80083FD0AC08091E80082FFF6
:104CB000F2CF80E0089582E0089583E0089581E0D6
:104CC000089520913702309138022617370748F0AF
:104CD0006115710539F42091E8002E772093E800E2
:104CE00001C0B901FC0120E06115710591F18091CD
:104CF0003002882309F440C0853009F43FC0809118
:104D0000E80083FD3DC08091E80082FD2FC08091C6
:104D1000E80080FFE9CF2091F3008091F20090E05D
:104D2000922B6115710559F08830910540F424915A
:104D30002093F1003196615071090196F2CF21E084
:104D4000089709F020E08091E8008E778093E800D2
:104D5000CBCF2111CCCF0AC080913002882361F0E3
:104D6000853061F08091E80083FD0AC08091E80001
:104D700082FFF2CF80E0089582E0089583E00895F5
:104D800081E00895982F973068F59093E90098177F
:104D900039F07091EC002091ED005091F00003C0CB
:104DA000242F762F50E021FD02C09F5FECCF309181
:104DB000EB003E7F3093EB003091ED003D7F309370
:104DC000ED003091EB0031603093EB007093EC001C
:104DD0002093ED005093F0002091EE0027FDE5CFE9
:104DE00080E008958F708093E90081E008958091BC
:104DF000310287FF11C08091E80082FD05C08091DB
:104E000030028111F8CF11C08091E8008B770BC080
:104E100080913002882349F08091E80080FFF8CF2C
:104E20008091E8008E778093E80008952091E40057
:104E30003091E50095E64091EC00842F817040FFB1
:104E400023C08091E80080FD1DC08091300288233E
:104E500099F0853099F08091EB0085FD11C040916B
:104E6000E4005091E5002417350729F3915011F023
:104E70009A01E1CF84E0089582E0089583E00895E7
:104E800081E0089580E008954091E80042FFDDCF81
:104E900008950E94B7270E94BF27E0EEF0E08081CE
:104EA00081608083E8EDF0E080818F77808319BC9A
:104EB000A7EDB0E08C918E7F8C9380818F7E808374
:104EC00010922F0208950F931F93CF93DF930E94A8
:104ED000B7270E94BF27C8EDD0E088818F778883ED
:104EE00088818068888388818F7D888319BC10922F
:104EF000300210922C0210922E0210922D0200EE1F
:104F000010E0F80180818B7F8083888181608883B5
:104F100042E060E080E00E94C226E1EEF0E08081A5
:104F20008E7F8083E2EEF0E08081816080838081EB
:104F300088608083F80180818E7F80838881806192
:104F40008883DF91CF911F910F910895E8EDF0E0F4
:104F500080818F7E8083E7EDF0E0808181608083B7
:104F600084E082BF81E080932F020C946327E8EDF8
:104F7000F0E080818E7F80831092E200089510928D
:104F8000DA001092E10008951F920F920FB60F926F
:104F900011242F933F934F935F936F937F938F933E
:104FA0009F93AF93BF93EF93FF938091E10082FFB4
:104FB0000BC08091E20082FF07C08091E1008B7FEF
:104FC0008093E1000E943A2A8091DA0080FF1FC09E
:104FD0008091D80080FF1BC08091DA008E7F809383
:104FE000DA008091D90080FF0DC080E189BD82E1A7
:104FF00089BD09B400FEFDCF81E0809330020E949C
:10500000102405C019BC109230020E941E24809109
:10501000E10080FF19C08091E20080FF15C08091FF
:10502000E2008E7F8093E2008091E20080618093B5
:10503000E2008091D80080628093D80019BC85E09E
:10504000809330020E9422248091E10084FF30C0CE
:105050008091E20084FF2CC080E189BD82E189BD9E
:1050600009B400FEFDCF8091D8008F7D8093D800D9
:105070008091E1008F7E8093E1008091E2008F7E3D
:105080008093E2008091E20081608093E200809151
:105090002C02882311F084E007C08091E30087FD93
:1050A00002C081E001C083E0809330020E9423248B
:1050B0008091E10083FF29C08091E20083FF25C039
:1050C0008091E100877F8093E10082E0809330024D
:1050D00010922C028091E1008E7F8093E1008091FC
:1050E000E2008E7F8093E2008091E20080618093F5
:1050F000E20042E060E080E00E94C2268091F00081
:1051000088608093F0000E942124FF91EF91BF916D
:10511000AF919F918F917F916F915F914F913F914F
:105120002F910F900FBE0F901F9018951F920F9206
:105130000FB60F9211242F933F934F935F936F936A
:105140007F938F939F93AF93BF93CF93DF93EF930F
:10515000FF93C091E900CF708091EC00D82FD170FF
:1051600080FDD0E81092E9008091F000877F809365
:10517000F00078940E94DA281092E9008091F00003
:1051800088608093F000CD2BCF70C093E900FF9131
:10519000EF91DF91CF91BF91AF919F918F917F91CF
:1051A0006F915F914F913F912F910F900FBE0F9094
:1051B0001F9018951F93CF93DF93CDB7DEB7AA97B3
:1051C0000FB6F894DEBF0FBECDBFE1E3F2E08091F1
:1051D000F100819322E0E933F207C9F70E942F24FE
:1051E0008091E80083FF2EC18091310290913202BC
:1051F000492F50E04A30510508F024C1FA01EC581B
:10520000FF4F0C94BE2A803821F0823809F01AC171
:1052100008C080912D0290912E02992389F082601E
:105220000FC0809135028F70873008F00BC18093DA
:10523000E9008091EB0085FB882780F91092E90056
:105240009091E800977F9093E8008093F10010928E
:10525000F100D1C0282F2D7F09F0F4C0882319F068
:10526000823061F0EFC080913302813009F0EAC0F2
:10527000933009F080E080932E022EC0809133029B
:1052800081112AC0809135028F702FEF280F2630B0
:1052900008F0D8C08093E9002091EB0020FF1CC0EB
:1052A000933021F48091EB00806214C09091EB0068
:1052B00090619093EB0021E030E0A90102C0440F1F
:1052C000551F8A95E2F74093EA001092EA00809118
:1052D000EB0088608093EB001092E9008091E80079
:1052E000877F8093E8000E94F726ACC08111AAC096
:1052F000109133021F778091E3008078812B809397
:10530000E3008091E800877F8093E8000E94F72601
:105310008091E80080FFFCCF8091E300806880935B
:10532000E300111102C082E001C083E080933002EB
:1053300089C08058823008F085C0809133029091F6
:1053400034028C3D53E0950779F583E08A838AE245
:1053500089834FB7F894DE01139620E03EE051E2D6
:10536000E32FF0E050935700E49120FF03C0E29553
:10537000EF703F5FEF708E2F90E0EA3010F0C7962D
:1053800001C0C0968D939D932F5F243149F74FBF85
:105390008091E800877F8093E8006AE270E0CE01A8
:1053A00001960E94032616C0609135027091360264
:1053B000AE014F5F5F4F0E942925BC01892B09F484
:1053C00041C09091E800977F9093E80089819A818D
:1053D0000E9461268091E8008B778093E80032C0BC
:1053E000803881F58091E800877F8093E800809184
:1053F0002C028093F1008091E8008E7772CF8111AA
:1054000021C0809133029091340299270297D4F4FD
:105410008091E800877F8093E80080913302809339
:105420002C020E94F72680912C02811106C08091E7
:10543000E30087FD02C081E001C084E08093300278
:105440000E9425248091E80083FF0AC08091E80033
:10545000877F8093E8008091EB0080628093EB006F
:10546000AA960FB6F894DEBF0FBECDBFDF91CF91E5
:105470001F9108950895CF93809130028823A1F061
:10548000C091E900CF709091EC00892F817090FD60
:1054900080E8C82B1092E9008091E80083FD0E940B
:1054A000DA28CF70C093E900CF910895DB018F9384
:1054B0009F930E94D32ABF91AF91A29F800D911D0F
:1054C000A39F900DB29F900D1124089587FB082E85
:1054D000062687FD819567FD61950E94002B0EF4DD
:1054E000919507FC81950895AA1BBB1B51E107C04C
:1054F000AA1FBB1FA617B70710F0A61BB70B881F64
:10550000991F5A95A9F780959095BC01CD010895F2
:1055100097FB072E16F4009407D077FD09D00E9460
:10552000742A07FC05D03EF4909581959F4F08950D
:10553000709561957F4F0895A1E21A2EAA1BBB1B9F
:10554000FD010DC0AA1FBB1FEE1FFF1FA217B3074F
:10555000E407F50720F0A21BB30BE40BF50B661F65
:10556000771F881F991F1A9469F760957095809529
:1055700090959B01AC01BD01CF010895EE0FFF1F77
:105580000590F491E02D0994A29FB001B39FC00152
:10559000A39F700D811D1124911DB29F700D811D5F
:1055A0001124911D08950E94C42AA59F900DB49FB7
:1055B000900DA49F800D911D112408950F93083024
:1055C00090F0982F872F762F652F542F432F322F4F
:1055D00022270850F4CF220F331F441F551F661F88
:1055E000771F881F991F0A95B2F70F9108952A1502
:1055F0003B054C055D056E057F0580079107089505
:10560000991B79E004C0991F961708F0961B881F14
:105610007A95C9F780950895FC014150504030F0CB
:1056200001900616D1F73197CF0108958827992761
:105630000895F999FECF92BD81BDF89A992780B55A
:105640000895A6E1B0E044E050E00C94532BA8E1AB
:10565000B0E042E050E00C94532B262FF999FECF96
:1056600092BD81BDF89A019700B4021639F01FBAB5
:1056700020BD0FB6F894FA9AF99A0FBE08950396D2
:10568000272F0E942E2B0E942D2B252F0E942E2B80
:10569000242F0C942E2B0196272F0E942E2B0C9436
:1056A0002D2BDC01CB01FC01F999FECF06C0F2BD28
:1056B000E1BDF89A319600B40D9241505040B8F7D0
:0656C0000895F894FFCFED
:1056C60001020B0B0B01191A1B1C1D1E1F20212288
:1056D600E5016823DD236B23A7236C23019294F451
:1056E600973133000102020202060606090909097A
:1056F60009090F0F0F0F0F0F15151518191919197D
:10570600191919191919232400FF0100010000FFB6
:08571600FF0000010001FF008B
:00000001FF
